{
  "_format": "hh-sol-artifact-1",
  "contractName": "TrustAirdrop",
  "sourceName": "src/TrustAccessControl.sol",
  "abi": [
    {
      "inputs": [
        {
          "internalType": "address",
          "name": "_owner",
          "type": "address"
        }
      ],
      "stateMutability": "nonpayable",
      "type": "constructor"
    },
    {
      "inputs": [
        {
          "internalType": "address",
          "name": "user",
          "type": "address"
        },
        {
          "internalType": "uint256",
          "name": "required",
          "type": "uint256"
        },
        {
          "internalType": "uint256",
          "name": "actual",
          "type": "uint256"
        }
      ],
      "name": "AccessDenied",
      "type": "error"
    },
    {
      "inputs": [
        {
          "internalType": "address",
          "name": "owner",
          "type": "address"
        }
      ],
      "name": "OwnableInvalidOwner",
      "type": "error"
    },
    {
      "inputs": [
        {
          "internalType": "address",
          "name": "account",
          "type": "address"
        }
      ],
      "name": "OwnableUnauthorizedAccount",
      "type": "error"
    },
    {
      "inputs": [],
      "name": "PolicyNotConfigured",
      "type": "error"
    },
    {
      "inputs": [
        {
          "internalType": "address",
          "name": "user",
          "type": "address"
        },
        {
          "internalType": "string",
          "name": "reason",
          "type": "string"
        }
      ],
      "name": "TrustVerificationFailed",
      "type": "error"
    },
    {
      "anonymous": false,
      "inputs": [
        {
          "indexed": true,
          "internalType": "address",
          "name": "user",
          "type": "address"
        }
      ],
      "name": "Claimed",
      "type": "event"
    },
    {
      "anonymous": false,
      "inputs": [
        {
          "indexed": true,
          "internalType": "address",
          "name": "previousOwner",
          "type": "address"
        },
        {
          "indexed": true,
          "internalType": "address",
          "name": "newOwner",
          "type": "address"
        }
      ],
      "name": "OwnershipTransferred",
      "type": "event"
    },
    {
      "inputs": [],
      "name": "claim",
      "outputs": [],
      "stateMutability": "nonpayable",
      "type": "function"
    },
    {
      "inputs": [
        {
          "internalType": "address",
          "name": "",
          "type": "address"
        }
      ],
      "name": "claimed",
      "outputs": [
        {
          "internalType": "bool",
          "name": "",
          "type": "bool"
        }
      ],
      "stateMutability": "view",
      "type": "function"
    },
    {
      "inputs": [
        {
          "internalType": "address",
          "name": "user",
          "type": "address"
        }
      ],
      "name": "hasClaimed",
      "outputs": [
        {
          "internalType": "bool",
          "name": "",
          "type": "bool"
        }
      ],
      "stateMutability": "view",
      "type": "function"
    },
    {
      "inputs": [],
      "name": "owner",
      "outputs": [
        {
          "internalType": "address",
          "name": "",
          "type": "address"
        }
      ],
      "stateMutability": "view",
      "type": "function"
    },
    {
      "inputs": [],
      "name": "policy",
      "outputs": [
        {
          "internalType": "contract ITrustPolicy",
          "name": "",
          "type": "address"
        }
      ],
      "stateMutability": "view",
      "type": "function"
    },
    {
      "inputs": [],
      "name": "renounceOwnership",
      "outputs": [],
      "stateMutability": "nonpayable",
      "type": "function"
    },
    {
      "inputs": [
        {
          "internalType": "address",
          "name": "_policy",
          "type": "address"
        }
      ],
      "name": "setPolicy",
      "outputs": [],
      "stateMutability": "nonpayable",
      "type": "function"
    },
    {
      "inputs": [
        {
          "internalType": "address",
          "name": "_verifier",
          "type": "address"
        }
      ],
      "name": "setVerifier",
      "outputs": [],
      "stateMutability": "nonpayable",
      "type": "function"
    },
    {
      "inputs": [],
      "name": "totalClaimed",
      "outputs": [
        {
          "internalType": "uint256",
          "name": "",
          "type": "uint256"
        }
      ],
      "stateMutability": "view",
      "type": "function"
    },
    {
      "inputs": [
        {
          "internalType": "address",
          "name": "newOwner",
          "type": "address"
        }
      ],
      "name": "transferOwnership",
      "outputs": [],
      "stateMutability": "nonpayable",
      "type": "function"
    },
    {
      "inputs": [],
      "name": "verifier",
      "outputs": [
        {
          "internalType": "contract ITrustVerifier",
          "name": "",
          "type": "address"
        }
      ],
      "stateMutability": "view",
      "type": "function"
    }
  ],
  "bytecode": "0x6080346100bb57601f61061e38819003918201601f19168301916001600160401b038311848410176100c0578084926020946040528339810103126100bb57516001600160a01b0390818116908190036100bb5780156100a257600080546001600160a01b03198116831782556040519316907f8be0079c531659141344cd1fd0a4f28419497f9722a3daafe3b4186f6b6457e09080a361054790816100d78239f35b604051631e4fbdf760e01b815260006004820152602490fd5b600080fd5b634e487b7160e01b600052604160045260246000fdfe608060408181526004908136101561001657600080fd5b600092833560e01c9081630505c8c9146104c0575080632b7ac3f3146104975780634e71d92d146102a55780635437988d1461025c578063715018a6146101ff57806373b2e80e1461014b5780637d4163d3146101b65780638da5cb5b1461018a578063c884ef831461014b578063d54ad2a11461012d5763f2fde38b1461009d57600080fd5b34610129576020366003190112610129576001600160a01b03823581811693919290849003610125576100ce6104e5565b831561010f57505082546001600160a01b0319811683178455167f8be0079c531659141344cd1fd0a4f28419497f9722a3daafe3b4186f6b6457e08380a380f35b51631e4fbdf760e01b8152908101849052602490fd5b8480fd5b8280fd5b50903461012957826003193601126101295760209250549051908152f35b50903461012957602036600319011261012957356001600160a01b0381169081900361012957818360ff92602095526003855220541690519015158152f35b8382346101b257816003193601126101b257905490516001600160a01b039091168152602090f35b5080fd5b5050346101b25760203660031901126101b257356001600160a01b038116908190036101b2576101e46104e5565b6bffffffffffffffffffffffff60a01b600254161760025580f35b83346102595780600319360112610259576102186104e5565b80546001600160a01b03198116825581906001600160a01b03167f8be0079c531659141344cd1fd0a4f28419497f9722a3daafe3b4186f6b6457e08280a380f35b80fd5b5050346101b25760203660031901126101b257356001600160a01b038116908190036101b25761028a6104e5565b6bffffffffffffffffffffffff60a01b600154161760015580f35b50346101295782600319360112610129576001546001600160a01b03168015610489578151635e09eea160e01b81523384820152602492916060908290859082905afa801561047f578591869161040e575b50156103cf57600181106103ad5750338452600360205260ff81852054166103795733845260036020528320805460ff19166001179055815490600019821461036857506001019055337fb449c24d261a59627b537c8c41c57ab559f4205c56bea745ff61c5521bece2148280a280f35b634e487b7160e01b84526011835283fd5b606492916020600f92519362461bcd60e51b85528401528201526e105b1c9958591e4818db185a5b5959608a1b6044820152fd5b60016064938593519363300f136560e01b855233908501528301526044820152fd5b50608492918151926390e7be9360e01b845233908401528201526013604482015272151c9d5cdd081cd8dbdc9948195e1c1a5c9959606a1b6064820152fd5b91505060603d606011610478575b601f8101601f1916820167ffffffffffffffff811183821017610466576060918391855281010312610125578160208201519101519081151582036104625790386102f7565b8580fd5b634e487b7160e01b8752604186528487fd5b503d61041c565b82513d87823e3d90fd5b5051633f70126b60e01b8152fd5b8382346101b257816003193601126101b25760015490516001600160a01b039091168152602090f35b8490346101b257816003193601126101b2576002546001600160a01b03168152602090f35b6000546001600160a01b031633036104f957565b60405163118cdaa760e01b8152336004820152602490fdfea26469706673582212206838efd28ba2d8d5747a8b47c77d94aceac7d7dc5bcbf3d7552abe8f6f15ed9364736f6c63430008180033",
  "linkReferences": {},
  "deployedLinkReferences": {}
}