{
  "_format": "hh-sol-artifact-1",
  "contractName": "TrustVault",
  "sourceName": "src/TrustAccessControl.sol",
  "abi": [
    {
      "inputs": [
        {
          "internalType": "address",
          "name": "_owner",
          "type": "address"
        }
      ],
      "stateMutability": "nonpayable",
      "type": "constructor"
    },
    {
      "inputs": [
        {
          "internalType": "address",
          "name": "user",
          "type": "address"
        },
        {
          "internalType": "uint256",
          "name": "required",
          "type": "uint256"
        },
        {
          "internalType": "uint256",
          "name": "actual",
          "type": "uint256"
        }
      ],
      "name": "AccessDenied",
      "type": "error"
    },
    {
      "inputs": [
        {
          "internalType": "address",
          "name": "owner",
          "type": "address"
        }
      ],
      "name": "OwnableInvalidOwner",
      "type": "error"
    },
    {
      "inputs": [
        {
          "internalType": "address",
          "name": "account",
          "type": "address"
        }
      ],
      "name": "OwnableUnauthorizedAccount",
      "type": "error"
    },
    {
      "inputs": [],
      "name": "PolicyNotConfigured",
      "type": "error"
    },
    {
      "inputs": [
        {
          "internalType": "address",
          "name": "user",
          "type": "address"
        },
        {
          "internalType": "string",
          "name": "reason",
          "type": "string"
        }
      ],
      "name": "TrustVerificationFailed",
      "type": "error"
    },
    {
      "anonymous": false,
      "inputs": [
        {
          "indexed": true,
          "internalType": "address",
          "name": "user",
          "type": "address"
        },
        {
          "indexed": false,
          "internalType": "uint256",
          "name": "amount",
          "type": "uint256"
        }
      ],
      "name": "Deposit",
      "type": "event"
    },
    {
      "anonymous": false,
      "inputs": [
        {
          "indexed": true,
          "internalType": "address",
          "name": "previousOwner",
          "type": "address"
        },
        {
          "indexed": true,
          "internalType": "address",
          "name": "newOwner",
          "type": "address"
        }
      ],
      "name": "OwnershipTransferred",
      "type": "event"
    },
    {
      "anonymous": false,
      "inputs": [
        {
          "indexed": true,
          "internalType": "address",
          "name": "user",
          "type": "address"
        },
        {
          "indexed": false,
          "internalType": "uint256",
          "name": "amount",
          "type": "uint256"
        }
      ],
      "name": "Withdraw",
      "type": "event"
    },
    {
      "inputs": [],
      "name": "deposit",
      "outputs": [],
      "stateMutability": "payable",
      "type": "function"
    },
    {
      "inputs": [
        {
          "internalType": "address",
          "name": "",
          "type": "address"
        }
      ],
      "name": "deposits",
      "outputs": [
        {
          "internalType": "uint256",
          "name": "",
          "type": "uint256"
        }
      ],
      "stateMutability": "view",
      "type": "function"
    },
    {
      "inputs": [
        {
          "internalType": "address",
          "name": "user",
          "type": "address"
        }
      ],
      "name": "getDeposit",
      "outputs": [
        {
          "internalType": "uint256",
          "name": "",
          "type": "uint256"
        }
      ],
      "stateMutability": "view",
      "type": "function"
    },
    {
      "inputs": [],
      "name": "owner",
      "outputs": [
        {
          "internalType": "address",
          "name": "",
          "type": "address"
        }
      ],
      "stateMutability": "view",
      "type": "function"
    },
    {
      "inputs": [],
      "name": "policy",
      "outputs": [
        {
          "internalType": "contract ITrustPolicy",
          "name": "",
          "type": "address"
        }
      ],
      "stateMutability": "view",
      "type": "function"
    },
    {
      "inputs": [],
      "name": "renounceOwnership",
      "outputs": [],
      "stateMutability": "nonpayable",
      "type": "function"
    },
    {
      "inputs": [
        {
          "internalType": "address",
          "name": "_policy",
          "type": "address"
        }
      ],
      "name": "setPolicy",
      "outputs": [],
      "stateMutability": "nonpayable",
      "type": "function"
    },
    {
      "inputs": [
        {
          "internalType": "address",
          "name": "_verifier",
          "type": "address"
        }
      ],
      "name": "setVerifier",
      "outputs": [],
      "stateMutability": "nonpayable",
      "type": "function"
    },
    {
      "inputs": [
        {
          "internalType": "address",
          "name": "newOwner",
          "type": "address"
        }
      ],
      "name": "transferOwnership",
      "outputs": [],
      "stateMutability": "nonpayable",
      "type": "function"
    },
    {
      "inputs": [],
      "name": "verifier",
      "outputs": [
        {
          "internalType": "contract ITrustVerifier",
          "name": "",
          "type": "address"
        }
      ],
      "stateMutability": "view",
      "type": "function"
    },
    {
      "inputs": [
        {
          "internalType": "uint256",
          "name": "amount",
          "type": "uint256"
        }
      ],
      "name": "withdraw",
      "outputs": [],
      "stateMutability": "nonpayable",
      "type": "function"
    }
  ],
  "bytecode": "0x6080346100bb57601f61077b38819003918201601f19168301916001600160401b038311848410176100c0578084926020946040528339810103126100bb57516001600160a01b0390818116908190036100bb5780156100a257600080546001600160a01b03198116831782556040519316907f8be0079c531659141344cd1fd0a4f28419497f9722a3daafe3b4186f6b6457e09080a36106a490816100d78239f35b604051631e4fbdf760e01b815260006004820152602490fd5b600080fd5b634e487b7160e01b600052604160045260246000fdfe6080604081815260048036101561001557600080fd5b600092833560e01c9081630505c8c9146105bc575080632b7ac3f3146105935780632e1a7d4d146104305780635437988d146103e7578063715018a61461038a5780637d4163d3146103415780638da5cb5b14610315578063d0e30db01461019f578063e1254fba14610166578063f2fde38b146100d85763fc7e286d1461009c57600080fd5b346100d45760203660031901126100d457356001600160a01b038116908190036100d457828291602094526003845220549051908152f35b8280fd5b5090346100d45760203660031901126100d4576001600160a01b038235818116939192908490036101625761010b610642565b831561014c57505082546001600160a01b0319811683178455167f8be0079c531659141344cd1fd0a4f28419497f9722a3daafe3b4186f6b6457e08380a380f35b51631e4fbdf760e01b8152908101849052602490fd5b8480fd5b50346100d45760203660031901126100d457356001600160a01b038116908190036100d457828291602094526003845220549051908152f35b50826003193601126100d4576001546001600160a01b03168015610306576060602491845192838092635e09eea160e01b825233878301525afa80156102f957849185916102c5575b501561027c57600281106102515750338352600360205281832080549134830180931161023e575055513481527fe1fffcc4923d04b559f4d29a8bfc6cda04eb5b0d3c460751c2402c5c5cc9109c60203392a280f35b634e487b7160e01b855260119052602484fd5b915163300f136560e01b81523391810191825260026020830152604082019290925281906060010390fd5b5090516390e7be9360e01b81523391810191825260406020830181905260139083015272151c9d5cdd081cd8dbdc9948195e1c1a5c9959606a1b60608301529081906080010390fd5b90506102e9915060603d6060116102f2575b6102e181836105e1565b810190610619565b915090386101e8565b503d6102d7565b50505051903d90823e3d90fd5b509051633f70126b60e01b8152fd5b50503461033d578160031936011261033d57905490516001600160a01b039091168152602090f35b5080fd5b83823461033d57602036600319011261033d57356001600160a01b0381169081900361033d5761036f610642565b6bffffffffffffffffffffffff60a01b600254161760025580f35b83346103e457806003193601126103e4576103a3610642565b80546001600160a01b03198116825581906001600160a01b03167f8be0079c531659141344cd1fd0a4f28419497f9722a3daafe3b4186f6b6457e08280a380f35b80fd5b83823461033d57602036600319011261033d57356001600160a01b0381169081900361033d57610415610642565b6bffffffffffffffffffffffff60a01b600154161760015580f35b5090346100d45760203660031901126100d457600154823592906001600160a01b03168015610306576060602491845192838092635e09eea160e01b825233878301525afa80156105895785918691610565575b501561027c57600281106102515750338452600360205282828520541061052c573384526003602052818420805491848303928311610519575055828083801561050f575b8280929181923390f11561050457519081527f884edad9ce6fa2440d8a54cc123490eb96d2768479d49ff9c7366125a942436460203392a280f35b51913d9150823e3d90fd5b6108fc91506104c9565b634e487b7160e01b865260119052602485fd5b6020606492519162461bcd60e51b83528201526014602482015273496e73756666696369656e742062616c616e636560601b6044820152fd5b9050610580915060603d6060116102f2576102e181836105e1565b91509038610484565b83513d87823e3d90fd5b50503461033d578160031936011261033d5760015490516001600160a01b039091168152602090f35b84903461033d578160031936011261033d576002546001600160a01b03168152602090f35b90601f8019910116810190811067ffffffffffffffff82111761060357604052565b634e487b7160e01b600052604160045260246000fd5b9081606091031261063d5780519160406020830151920151801515810361063d5790565b600080fd5b6000546001600160a01b0316330361065657565b60405163118cdaa760e01b8152336004820152602490fdfea26469706673582212206996741e0af6bde495305693ab398c06c004b6172d0c19d93ae44aa8ca0a424364736f6c63430008180033",
  "linkReferences": {},
  "deployedLinkReferences": {}
}