{"src/TrustAccessControl.sol":{"TrustVault":{"abi":[{"inputs":[{"internalType":"address","name":"_owner","type":"address"}],"stateMutability":"nonpayable","type":"constructor"},{"inputs":[{"internalType":"address","name":"user","type":"address"},{"internalType":"uint256","name":"required","type":"uint256"},{"internalType":"uint256","name":"actual","type":"uint256"}],"name":"AccessDenied","type":"error"},{"inputs":[{"internalType":"address","name":"owner","type":"address"}],"name":"OwnableInvalidOwner","type":"error"},{"inputs":[{"internalType":"address","name":"account","type":"address"}],"name":"OwnableUnauthorizedAccount","type":"error"},{"inputs":[],"name":"PolicyNotConfigured","type":"error"},{"inputs":[{"internalType":"address","name":"user","type":"address"},{"internalType":"string","name":"reason","type":"string"}],"name":"TrustVerificationFailed","type":"error"},{"anonymous":false,"inputs":[{"indexed":true,"internalType":"address","name":"user","type":"address"},{"indexed":false,"internalType":"uint256","name":"amount","type":"uint256"}],"name":"Deposit","type":"event"},{"anonymous":false,"inputs":[{"indexed":true,"internalType":"address","name":"previousOwner","type":"address"},{"indexed":true,"internalType":"address","name":"newOwner","type":"address"}],"name":"OwnershipTransferred","type":"event"},{"anonymous":false,"inputs":[{"indexed":true,"internalType":"address","name":"user","type":"address"},{"indexed":false,"internalType":"uint256","name":"amount","type":"uint256"}],"name":"Withdraw","type":"event"},{"inputs":[],"name":"deposit","outputs":[],"stateMutability":"payable","type":"function"},{"inputs":[{"internalType":"address","name":"","type":"address"}],"name":"deposits","outputs":[{"internalType":"uint256","name":"","type":"uint256"}],"stateMutability":"view","type":"function"},{"inputs":[{"internalType":"address","name":"user","type":"address"}],"name":"getDeposit","outputs":[{"internalType":"uint256","name":"","type":"uint256"}],"stateMutability":"view","type":"function"},{"inputs":[],"name":"owner","outputs":[{"internalType":"address","name":"","type":"address"}],"stateMutability":"view","type":"function"},{"inputs":[],"name":"policy","outputs":[{"internalType":"contract ITrustPolicy","name":"","type":"address"}],"stateMutability":"view","type":"function"},{"inputs":[],"name":"renounceOwnership","outputs":[],"stateMutability":"nonpayable","type":"function"},{"inputs":[{"internalType":"address","name":"_policy","type":"address"}],"name":"setPolicy","outputs":[],"stateMutability":"nonpayable","type":"function"},{"inputs":[{"internalType":"address","name":"_verifier","type":"address"}],"name":"setVerifier","outputs":[],"stateMutability":"nonpayable","type":"function"},{"inputs":[{"internalType":"address","name":"newOwner","type":"address"}],"name":"transferOwnership","outputs":[],"stateMutability":"nonpayable","type":"function"},{"inputs":[],"name":"verifier","outputs":[{"internalType":"contract ITrustVerifier","name":"","type":"address"}],"stateMutability":"view","type":"function"},{"inputs":[{"internalType":"uint256","name":"amount","type":"uint256"}],"name":"withdraw","outputs":[],"stateMutability":"nonpayable","type":"function"}],"evm":{"bytecode":{"linkReferences":{},"object":"6080346100bb57601f61077b38819003918201601f19168301916001600160401b038311848410176100c0578084926020946040528339810103126100bb57516001600160a01b0390818116908190036100bb5780156100a257600080546001600160a01b03198116831782556040519316907f8be0079c531659141344cd1fd0a4f28419497f9722a3daafe3b4186f6b6457e09080a36106a490816100d78239f35b604051631e4fbdf760e01b815260006004820152602490fd5b600080fd5b634e487b7160e01b600052604160045260246000fdfe6080604081815260048036101561001557600080fd5b600092833560e01c9081630505c8c9146105bc575080632b7ac3f3146105935780632e1a7d4d146104305780635437988d146103e7578063715018a61461038a5780637d4163d3146103415780638da5cb5b14610315578063d0e30db01461019f578063e1254fba14610166578063f2fde38b146100d85763fc7e286d1461009c57600080fd5b346100d45760203660031901126100d457356001600160a01b038116908190036100d457828291602094526003845220549051908152f35b8280fd5b5090346100d45760203660031901126100d4576001600160a01b038235818116939192908490036101625761010b610642565b831561014c57505082546001600160a01b0319811683178455167f8be0079c531659141344cd1fd0a4f28419497f9722a3daafe3b4186f6b6457e08380a380f35b51631e4fbdf760e01b8152908101849052602490fd5b8480fd5b50346100d45760203660031901126100d457356001600160a01b038116908190036100d457828291602094526003845220549051908152f35b50826003193601126100d4576001546001600160a01b03168015610306576060602491845192838092635e09eea160e01b825233878301525afa80156102f957849185916102c5575b501561027c57600281106102515750338352600360205281832080549134830180931161023e575055513481527fe1fffcc4923d04b559f4d29a8bfc6cda04eb5b0d3c460751c2402c5c5cc9109c60203392a280f35b634e487b7160e01b855260119052602484fd5b915163300f136560e01b81523391810191825260026020830152604082019290925281906060010390fd5b5090516390e7be9360e01b81523391810191825260406020830181905260139083015272151c9d5cdd081cd8dbdc9948195e1c1a5c9959606a1b60608301529081906080010390fd5b90506102e9915060603d6060116102f2575b6102e181836105e1565b810190610619565b915090386101e8565b503d6102d7565b50505051903d90823e3d90fd5b509051633f70126b60e01b8152fd5b50503461033d578160031936011261033d57905490516001600160a01b039091168152602090f35b5080fd5b83823461033d57602036600319011261033d57356001600160a01b0381169081900361033d5761036f610642565b6bffffffffffffffffffffffff60a01b600254161760025580f35b83346103e457806003193601126103e4576103a3610642565b80546001600160a01b03198116825581906001600160a01b03167f8be0079c531659141344cd1fd0a4f28419497f9722a3daafe3b4186f6b6457e08280a380f35b80fd5b83823461033d57602036600319011261033d57356001600160a01b0381169081900361033d57610415610642565b6bffffffffffffffffffffffff60a01b600154161760015580f35b5090346100d45760203660031901126100d457600154823592906001600160a01b03168015610306576060602491845192838092635e09eea160e01b825233878301525afa80156105895785918691610565575b501561027c57600281106102515750338452600360205282828520541061052c573384526003602052818420805491848303928311610519575055828083801561050f575b8280929181923390f11561050457519081527f884edad9ce6fa2440d8a54cc123490eb96d2768479d49ff9c7366125a942436460203392a280f35b51913d9150823e3d90fd5b6108fc91506104c9565b634e487b7160e01b865260119052602485fd5b6020606492519162461bcd60e51b83528201526014602482015273496e73756666696369656e742062616c616e636560601b6044820152fd5b9050610580915060603d6060116102f2576102e181836105e1565b91509038610484565b83513d87823e3d90fd5b50503461033d578160031936011261033d5760015490516001600160a01b039091168152602090f35b84903461033d578160031936011261033d576002546001600160a01b03168152602090f35b90601f8019910116810190811067ffffffffffffffff82111761060357604052565b634e487b7160e01b600052604160045260246000fd5b9081606091031261063d5780519160406020830151920151801515810361063d5790565b600080fd5b6000546001600160a01b0316330361065657565b60405163118cdaa760e01b8152336004820152602490fdfea26469706673582212206996741e0af6bde495305693ab398c06c004b6172d0c19d93ae44aa8ca0a424364736f6c63430008180033","opcodes":"PUSH1 0x80 CALLVALUE PUSH2 0xBB JUMPI PUSH1 0x1F PUSH2 0x77B CODESIZE DUP2 SWAP1 SUB SWAP2 DUP3 ADD PUSH1 0x1F NOT AND DUP4 ADD SWAP2 PUSH1 0x1 PUSH1 0x1 PUSH1 0x40 SHL SUB DUP4 GT DUP5 DUP5 LT OR PUSH2 0xC0 JUMPI DUP1 DUP5 SWAP3 PUSH1 0x20 SWAP5 PUSH1 0x40 MSTORE DUP4 CODECOPY DUP2 ADD SUB SLT PUSH2 0xBB JUMPI MLOAD PUSH1 0x1 PUSH1 0x1 PUSH1 0xA0 SHL SUB SWAP1 DUP2 DUP2 AND SWAP1 DUP2 SWAP1 SUB PUSH2 0xBB JUMPI DUP1 ISZERO PUSH2 0xA2 JUMPI PUSH1 0x0 DUP1 SLOAD PUSH1 0x1 PUSH1 0x1 PUSH1 0xA0 SHL SUB NOT DUP2 AND DUP4 OR DUP3 SSTORE PUSH1 0x40 MLOAD SWAP4 AND SWAP1 PUSH32 0x8BE0079C531659141344CD1FD0A4F28419497F9722A3DAAFE3B4186F6B6457E0 SWAP1 DUP1 LOG3 PUSH2 0x6A4 SWAP1 DUP2 PUSH2 0xD7 DUP3 CODECOPY RETURN JUMPDEST PUSH1 0x40 MLOAD PUSH4 0x1E4FBDF7 PUSH1 0xE0 SHL DUP2 MSTORE PUSH1 0x0 PUSH1 0x4 DUP3 ADD MSTORE PUSH1 0x24 SWAP1 REVERT JUMPDEST PUSH1 0x0 DUP1 REVERT JUMPDEST PUSH4 0x4E487B71 PUSH1 0xE0 SHL PUSH1 0x0 MSTORE PUSH1 0x41 PUSH1 0x4 MSTORE PUSH1 0x24 PUSH1 0x0 REVERT INVALID PUSH1 0x80 PUSH1 0x40 DUP2 DUP2 MSTORE PUSH1 0x4 DUP1 CALLDATASIZE LT ISZERO PUSH2 0x15 JUMPI PUSH1 0x0 DUP1 REVERT JUMPDEST PUSH1 0x0 SWAP3 DUP4 CALLDATALOAD PUSH1 0xE0 SHR SWAP1 DUP2 PUSH4 0x505C8C9 EQ PUSH2 0x5BC JUMPI POP DUP1 PUSH4 0x2B7AC3F3 EQ PUSH2 0x593 JUMPI DUP1 PUSH4 0x2E1A7D4D EQ PUSH2 0x430 JUMPI DUP1 PUSH4 0x5437988D EQ PUSH2 0x3E7 JUMPI DUP1 PUSH4 0x715018A6 EQ PUSH2 0x38A JUMPI DUP1 PUSH4 0x7D4163D3 EQ PUSH2 0x341 JUMPI DUP1 PUSH4 0x8DA5CB5B EQ PUSH2 0x315 JUMPI DUP1 PUSH4 0xD0E30DB0 EQ PUSH2 0x19F JUMPI DUP1 PUSH4 0xE1254FBA EQ PUSH2 0x166 JUMPI DUP1 PUSH4 0xF2FDE38B EQ PUSH2 0xD8 JUMPI PUSH4 0xFC7E286D EQ PUSH2 0x9C JUMPI PUSH1 0x0 DUP1 REVERT JUMPDEST CALLVALUE PUSH2 0xD4 JUMPI PUSH1 0x20 CALLDATASIZE PUSH1 0x3 NOT ADD SLT PUSH2 0xD4 JUMPI CALLDATALOAD PUSH1 0x1 PUSH1 0x1 PUSH1 0xA0 SHL SUB DUP2 AND SWAP1 DUP2 SWAP1 SUB PUSH2 0xD4 JUMPI DUP3 DUP3 SWAP2 PUSH1 0x20 SWAP5 MSTORE PUSH1 0x3 DUP5 MSTORE KECCAK256 SLOAD SWAP1 MLOAD SWAP1 DUP2 MSTORE RETURN JUMPDEST DUP3 DUP1 REVERT JUMPDEST POP SWAP1 CALLVALUE PUSH2 0xD4 JUMPI PUSH1 0x20 CALLDATASIZE PUSH1 0x3 NOT ADD SLT PUSH2 0xD4 JUMPI PUSH1 0x1 PUSH1 0x1 PUSH1 0xA0 SHL SUB DUP3 CALLDATALOAD DUP2 DUP2 AND SWAP4 SWAP2 SWAP3 SWAP1 DUP5 SWAP1 SUB PUSH2 0x162 JUMPI PUSH2 0x10B PUSH2 0x642 JUMP JUMPDEST DUP4 ISZERO PUSH2 0x14C JUMPI POP POP DUP3 SLOAD PUSH1 0x1 PUSH1 0x1 PUSH1 0xA0 SHL SUB NOT DUP2 AND DUP4 OR DUP5 SSTORE AND PUSH32 0x8BE0079C531659141344CD1FD0A4F28419497F9722A3DAAFE3B4186F6B6457E0 DUP4 DUP1 LOG3 DUP1 RETURN JUMPDEST MLOAD PUSH4 0x1E4FBDF7 PUSH1 0xE0 SHL DUP2 MSTORE SWAP1 DUP2 ADD DUP5 SWAP1 MSTORE PUSH1 0x24 SWAP1 REVERT JUMPDEST DUP5 DUP1 REVERT JUMPDEST POP CALLVALUE PUSH2 0xD4 JUMPI PUSH1 0x20 CALLDATASIZE PUSH1 0x3 NOT ADD SLT PUSH2 0xD4 JUMPI CALLDATALOAD PUSH1 0x1 PUSH1 0x1 PUSH1 0xA0 SHL SUB DUP2 AND SWAP1 DUP2 SWAP1 SUB PUSH2 0xD4 JUMPI DUP3 DUP3 SWAP2 PUSH1 0x20 SWAP5 MSTORE PUSH1 0x3 DUP5 MSTORE KECCAK256 SLOAD SWAP1 MLOAD SWAP1 DUP2 MSTORE RETURN JUMPDEST POP DUP3 PUSH1 0x3 NOT CALLDATASIZE ADD SLT PUSH2 0xD4 JUMPI PUSH1 0x1 SLOAD PUSH1 0x1 PUSH1 0x1 PUSH1 0xA0 SHL SUB AND DUP1 ISZERO PUSH2 0x306 JUMPI PUSH1 0x60 PUSH1 0x24 SWAP2 DUP5 MLOAD SWAP3 DUP4 DUP1 SWAP3 PUSH4 0x5E09EEA1 PUSH1 0xE0 SHL DUP3 MSTORE CALLER DUP8 DUP4 ADD MSTORE GAS STATICCALL DUP1 ISZERO PUSH2 0x2F9 JUMPI DUP5 SWAP2 DUP6 SWAP2 PUSH2 0x2C5 JUMPI JUMPDEST POP ISZERO PUSH2 0x27C JUMPI PUSH1 0x2 DUP2 LT PUSH2 0x251 JUMPI POP CALLER DUP4 MSTORE PUSH1 0x3 PUSH1 0x20 MSTORE DUP2 DUP4 KECCAK256 DUP1 SLOAD SWAP2 CALLVALUE DUP4 ADD DUP1 SWAP4 GT PUSH2 0x23E JUMPI POP SSTORE MLOAD CALLVALUE DUP2 MSTORE PUSH32 0xE1FFFCC4923D04B559F4D29A8BFC6CDA04EB5B0D3C460751C2402C5C5CC9109C PUSH1 0x20 CALLER SWAP3 LOG2 DUP1 RETURN JUMPDEST PUSH4 0x4E487B71 PUSH1 0xE0 SHL DUP6 MSTORE PUSH1 0x11 SWAP1 MSTORE PUSH1 0x24 DUP5 REVERT JUMPDEST SWAP2 MLOAD PUSH4 0x300F1365 PUSH1 0xE0 SHL DUP2 MSTORE CALLER SWAP2 DUP2 ADD SWAP2 DUP3 MSTORE PUSH1 0x2 PUSH1 0x20 DUP4 ADD MSTORE PUSH1 0x40 DUP3 ADD SWAP3 SWAP1 SWAP3 MSTORE DUP2 SWAP1 PUSH1 0x60 ADD SUB SWAP1 REVERT JUMPDEST POP SWAP1 MLOAD PUSH4 0x90E7BE93 PUSH1 0xE0 SHL DUP2 MSTORE CALLER SWAP2 DUP2 ADD SWAP2 DUP3 MSTORE PUSH1 0x40 PUSH1 0x20 DUP4 ADD DUP2 SWAP1 MSTORE PUSH1 0x13 SWAP1 DUP4 ADD MSTORE PUSH19 0x151C9D5CDD081CD8DBDC9948195E1C1A5C9959 PUSH1 0x6A SHL PUSH1 0x60 DUP4 ADD MSTORE SWAP1 DUP2 SWAP1 PUSH1 0x80 ADD SUB SWAP1 REVERT JUMPDEST SWAP1 POP PUSH2 0x2E9 SWAP2 POP PUSH1 0x60 RETURNDATASIZE PUSH1 0x60 GT PUSH2 0x2F2 JUMPI JUMPDEST PUSH2 0x2E1 DUP2 DUP4 PUSH2 0x5E1 JUMP JUMPDEST DUP2 ADD SWAP1 PUSH2 0x619 JUMP JUMPDEST SWAP2 POP SWAP1 CODESIZE PUSH2 0x1E8 JUMP JUMPDEST POP RETURNDATASIZE PUSH2 0x2D7 JUMP JUMPDEST POP POP POP MLOAD SWAP1 RETURNDATASIZE SWAP1 DUP3 RETURNDATACOPY RETURNDATASIZE SWAP1 REVERT JUMPDEST POP SWAP1 MLOAD PUSH4 0x3F70126B PUSH1 0xE0 SHL DUP2 MSTORE REVERT JUMPDEST POP POP CALLVALUE PUSH2 0x33D JUMPI DUP2 PUSH1 0x3 NOT CALLDATASIZE ADD SLT PUSH2 0x33D JUMPI SWAP1 SLOAD SWAP1 MLOAD PUSH1 0x1 PUSH1 0x1 PUSH1 0xA0 SHL SUB SWAP1 SWAP2 AND DUP2 MSTORE PUSH1 0x20 SWAP1 RETURN JUMPDEST POP DUP1 REVERT JUMPDEST DUP4 DUP3 CALLVALUE PUSH2 0x33D JUMPI PUSH1 0x20 CALLDATASIZE PUSH1 0x3 NOT ADD SLT PUSH2 0x33D JUMPI CALLDATALOAD PUSH1 0x1 PUSH1 0x1 PUSH1 0xA0 SHL SUB DUP2 AND SWAP1 DUP2 SWAP1 SUB PUSH2 0x33D JUMPI PUSH2 0x36F PUSH2 0x642 JUMP JUMPDEST PUSH12 0xFFFFFFFFFFFFFFFFFFFFFFFF PUSH1 0xA0 SHL PUSH1 0x2 SLOAD AND OR PUSH1 0x2 SSTORE DUP1 RETURN JUMPDEST DUP4 CALLVALUE PUSH2 0x3E4 JUMPI DUP1 PUSH1 0x3 NOT CALLDATASIZE ADD SLT PUSH2 0x3E4 JUMPI PUSH2 0x3A3 PUSH2 0x642 JUMP JUMPDEST DUP1 SLOAD PUSH1 0x1 PUSH1 0x1 PUSH1 0xA0 SHL SUB NOT DUP2 AND DUP3 SSTORE DUP2 SWAP1 PUSH1 0x1 PUSH1 0x1 PUSH1 0xA0 SHL SUB AND PUSH32 0x8BE0079C531659141344CD1FD0A4F28419497F9722A3DAAFE3B4186F6B6457E0 DUP3 DUP1 LOG3 DUP1 RETURN JUMPDEST DUP1 REVERT JUMPDEST DUP4 DUP3 CALLVALUE PUSH2 0x33D JUMPI PUSH1 0x20 CALLDATASIZE PUSH1 0x3 NOT ADD SLT PUSH2 0x33D JUMPI CALLDATALOAD PUSH1 0x1 PUSH1 0x1 PUSH1 0xA0 SHL SUB DUP2 AND SWAP1 DUP2 SWAP1 SUB PUSH2 0x33D JUMPI PUSH2 0x415 PUSH2 0x642 JUMP JUMPDEST PUSH12 0xFFFFFFFFFFFFFFFFFFFFFFFF PUSH1 0xA0 SHL PUSH1 0x1 SLOAD AND OR PUSH1 0x1 SSTORE DUP1 RETURN JUMPDEST POP SWAP1 CALLVALUE PUSH2 0xD4 JUMPI PUSH1 0x20 CALLDATASIZE PUSH1 0x3 NOT ADD SLT PUSH2 0xD4 JUMPI PUSH1 0x1 SLOAD DUP3 CALLDATALOAD SWAP3 SWAP1 PUSH1 0x1 PUSH1 0x1 PUSH1 0xA0 SHL SUB AND DUP1 ISZERO PUSH2 0x306 JUMPI PUSH1 0x60 PUSH1 0x24 SWAP2 DUP5 MLOAD SWAP3 DUP4 DUP1 SWAP3 PUSH4 0x5E09EEA1 PUSH1 0xE0 SHL DUP3 MSTORE CALLER DUP8 DUP4 ADD MSTORE GAS STATICCALL DUP1 ISZERO PUSH2 0x589 JUMPI DUP6 SWAP2 DUP7 SWAP2 PUSH2 0x565 JUMPI JUMPDEST POP ISZERO PUSH2 0x27C JUMPI PUSH1 0x2 DUP2 LT PUSH2 0x251 JUMPI POP CALLER DUP5 MSTORE PUSH1 0x3 PUSH1 0x20 MSTORE DUP3 DUP3 DUP6 KECCAK256 SLOAD LT PUSH2 0x52C JUMPI CALLER DUP5 MSTORE PUSH1 0x3 PUSH1 0x20 MSTORE DUP2 DUP5 KECCAK256 DUP1 SLOAD SWAP2 DUP5 DUP4 SUB SWAP3 DUP4 GT PUSH2 0x519 JUMPI POP SSTORE DUP3 DUP1 DUP4 DUP1 ISZERO PUSH2 0x50F JUMPI JUMPDEST DUP3 DUP1 SWAP3 SWAP2 DUP2 SWAP3 CALLER SWAP1 CALL ISZERO PUSH2 0x504 JUMPI MLOAD SWAP1 DUP2 MSTORE PUSH32 0x884EDAD9CE6FA2440D8A54CC123490EB96D2768479D49FF9C7366125A9424364 PUSH1 0x20 CALLER SWAP3 LOG2 DUP1 RETURN JUMPDEST MLOAD SWAP2 RETURNDATASIZE SWAP2 POP DUP3 RETURNDATACOPY RETURNDATASIZE SWAP1 REVERT JUMPDEST PUSH2 0x8FC SWAP2 POP PUSH2 0x4C9 JUMP JUMPDEST PUSH4 0x4E487B71 PUSH1 0xE0 SHL DUP7 MSTORE PUSH1 0x11 SWAP1 MSTORE PUSH1 0x24 DUP6 REVERT JUMPDEST PUSH1 0x20 PUSH1 0x64 SWAP3 MLOAD SWAP2 PUSH3 0x461BCD PUSH1 0xE5 SHL DUP4 MSTORE DUP3 ADD MSTORE PUSH1 0x14 PUSH1 0x24 DUP3 ADD MSTORE PUSH20 0x496E73756666696369656E742062616C616E6365 PUSH1 0x60 SHL PUSH1 0x44 DUP3 ADD MSTORE REVERT JUMPDEST SWAP1 POP PUSH2 0x580 SWAP2 POP PUSH1 0x60 RETURNDATASIZE PUSH1 0x60 GT PUSH2 0x2F2 JUMPI PUSH2 0x2E1 DUP2 DUP4 PUSH2 0x5E1 JUMP JUMPDEST SWAP2 POP SWAP1 CODESIZE PUSH2 0x484 JUMP JUMPDEST DUP4 MLOAD RETURNDATASIZE DUP8 DUP3 RETURNDATACOPY RETURNDATASIZE SWAP1 REVERT JUMPDEST POP POP CALLVALUE PUSH2 0x33D JUMPI DUP2 PUSH1 0x3 NOT CALLDATASIZE ADD SLT PUSH2 0x33D JUMPI PUSH1 0x1 SLOAD SWAP1 MLOAD PUSH1 0x1 PUSH1 0x1 PUSH1 0xA0 SHL SUB SWAP1 SWAP2 AND DUP2 MSTORE PUSH1 0x20 SWAP1 RETURN JUMPDEST DUP5 SWAP1 CALLVALUE PUSH2 0x33D JUMPI DUP2 PUSH1 0x3 NOT CALLDATASIZE ADD SLT PUSH2 0x33D JUMPI PUSH1 0x2 SLOAD PUSH1 0x1 PUSH1 0x1 PUSH1 0xA0 SHL SUB AND DUP2 MSTORE PUSH1 0x20 SWAP1 RETURN JUMPDEST SWAP1 PUSH1 0x1F DUP1 NOT SWAP2 ADD AND DUP2 ADD SWAP1 DUP2 LT PUSH8 0xFFFFFFFFFFFFFFFF DUP3 GT OR PUSH2 0x603 JUMPI PUSH1 0x40 MSTORE JUMP JUMPDEST PUSH4 0x4E487B71 PUSH1 0xE0 SHL PUSH1 0x0 MSTORE PUSH1 0x41 PUSH1 0x4 MSTORE PUSH1 0x24 PUSH1 0x0 REVERT JUMPDEST SWAP1 DUP2 PUSH1 0x60 SWAP2 SUB SLT PUSH2 0x63D JUMPI DUP1 MLOAD SWAP2 PUSH1 0x40 PUSH1 0x20 DUP4 ADD MLOAD SWAP3 ADD MLOAD DUP1 ISZERO ISZERO DUP2 SUB PUSH2 0x63D JUMPI SWAP1 JUMP JUMPDEST PUSH1 0x0 DUP1 REVERT JUMPDEST PUSH1 0x0 SLOAD PUSH1 0x1 PUSH1 0x1 PUSH1 0xA0 SHL SUB AND CALLER SUB PUSH2 0x656 JUMPI JUMP JUMPDEST PUSH1 0x40 MLOAD PUSH4 0x118CDAA7 PUSH1 0xE0 SHL DUP2 MSTORE CALLER PUSH1 0x4 DUP3 ADD MSTORE PUSH1 0x24 SWAP1 REVERT INVALID LOG2 PUSH5 0x6970667358 0x22 SLT KECCAK256 PUSH10 0x96741E0AF6BDE4953056 SWAP4 0xAB CODECOPY DUP13 MOD 0xC0 DIV 0xB6 OR 0x2D 0xC NOT 0xD9 GASPRICE 0xE4 BLOBBASEFEE 0xA8 0xCA EXP TIMESTAMP NUMBER PUSH5 0x736F6C6343 STOP ADDMOD XOR STOP CALLER "},"methodIdentifiers":{"deposit()":"d0e30db0","deposits(address)":"fc7e286d","getDeposit(address)":"e1254fba","owner()":"8da5cb5b","policy()":"0505c8c9","renounceOwnership()":"715018a6","setPolicy(address)":"7d4163d3","setVerifier(address)":"5437988d","transferOwnership(address)":"f2fde38b","verifier()":"2b7ac3f3","withdraw(uint256)":"2e1a7d4d"}}}}}