{"src/TrustPolicy.sol":{"TrustPolicy":{"abi":[{"inputs":[{"internalType":"address","name":"_owner","type":"address"}],"stateMutability":"nonpayable","type":"constructor"},{"inputs":[],"name":"InvalidPolicyConfig","type":"error"},{"inputs":[{"internalType":"address","name":"owner","type":"address"}],"name":"OwnableInvalidOwner","type":"error"},{"inputs":[{"internalType":"address","name":"account","type":"address"}],"name":"OwnableUnauthorizedAccount","type":"error"},{"inputs":[],"name":"PolicyAlreadyExists","type":"error"},{"inputs":[],"name":"PolicyDoesNotExist","type":"error"},{"inputs":[{"internalType":"address","name":"user","type":"address"},{"internalType":"string","name":"reason","type":"string"}],"name":"UserNotEligible","type":"error"},{"anonymous":false,"inputs":[{"indexed":true,"internalType":"address","name":"previousOwner","type":"address"},{"indexed":true,"internalType":"address","name":"newOwner","type":"address"}],"name":"OwnershipTransferred","type":"event"},{"anonymous":false,"inputs":[{"indexed":true,"internalType":"bytes32","name":"policyId","type":"bytes32"},{"indexed":false,"internalType":"string","name":"name","type":"string"},{"indexed":false,"internalType":"uint256","name":"minScore","type":"uint256"},{"indexed":false,"internalType":"uint256","name":"minBand","type":"uint256"}],"name":"PolicyCreated","type":"event"},{"anonymous":false,"inputs":[{"indexed":true,"internalType":"bytes32","name":"policyId","type":"bytes32"}],"name":"PolicyDeleted","type":"event"},{"anonymous":false,"inputs":[{"indexed":true,"internalType":"bytes32","name":"policyId","type":"bytes32"}],"name":"PolicyUpdated","type":"event"},{"anonymous":false,"inputs":[{"indexed":true,"internalType":"address","name":"user","type":"address"},{"indexed":true,"internalType":"bytes32","name":"policyId","type":"bytes32"},{"indexed":false,"internalType":"uint256","name":"score","type":"uint256"},{"indexed":false,"internalType":"uint256","name":"band","type":"uint256"}],"name":"UserApproved","type":"event"},{"anonymous":false,"inputs":[{"indexed":true,"internalType":"address","name":"user","type":"address"},{"indexed":true,"internalType":"bytes32","name":"policyId","type":"bytes32"},{"indexed":false,"internalType":"string","name":"reason","type":"string"}],"name":"UserDenied","type":"event"},{"inputs":[{"internalType":"address","name":"user","type":"address"},{"internalType":"bytes32","name":"policyId","type":"bytes32"},{"internalType":"uint256","name":"userTrustScore","type":"uint256"},{"internalType":"uint256","name":"userBand","type":"uint256"},{"internalType":"bool","name":"isHuman","type":"bool"},{"internalType":"bool","name":"hasCredential","type":"bool"}],"name":"approveUser","outputs":[{"internalType":"bool","name":"allowed","type":"bool"}],"stateMutability":"nonpayable","type":"function"},{"inputs":[{"internalType":"address","name":"user","type":"address"},{"internalType":"bytes32","name":"policyId","type":"bytes32"}],"name":"checkApproval","outputs":[{"internalType":"bool","name":"","type":"bool"}],"stateMutability":"view","type":"function"},{"inputs":[{"internalType":"bytes32","name":"policyId","type":"bytes32"},{"internalType":"string","name":"name","type":"string"},{"internalType":"uint256","name":"_minTrustScore","type":"uint256"},{"internalType":"uint256","name":"_minBand","type":"uint256"},{"internalType":"bool","name":"_requireHuman","type":"bool"},{"internalType":"bool","name":"_requireCredential","type":"bool"}],"name":"createPolicy","outputs":[],"stateMutability":"nonpayable","type":"function"},{"inputs":[{"internalType":"bytes32","name":"policyId","type":"bytes32"}],"name":"deletePolicy","outputs":[],"stateMutability":"nonpayable","type":"function"},{"inputs":[{"internalType":"address","name":"user","type":"address"},{"internalType":"bytes32","name":"policyId","type":"bytes32"},{"internalType":"uint256","name":"userTrustScore","type":"uint256"},{"internalType":"uint256","name":"userBand","type":"uint256"},{"internalType":"bool","name":"isHuman","type":"bool"},{"internalType":"bool","name":"hasCredential","type":"bool"}],"name":"evaluatePolicy","outputs":[{"internalType":"bool","name":"allowed","type":"bool"},{"internalType":"string[]","name":"reasons","type":"string[]"}],"stateMutability":"view","type":"function"},{"inputs":[{"internalType":"bytes32","name":"policyId","type":"bytes32"}],"name":"getPolicy","outputs":[{"internalType":"string","name":"name","type":"string"},{"internalType":"uint256","name":"minTrustScore","type":"uint256"},{"internalType":"uint256","name":"minBand","type":"uint256"},{"internalType":"bool","name":"requireHuman","type":"bool"},{"internalType":"bool","name":"requireCredential","type":"bool"},{"internalType":"bool","name":"active","type":"bool"}],"stateMutability":"view","type":"function"},{"inputs":[{"internalType":"string","name":"name","type":"string"},{"internalType":"address","name":"protocol","type":"address"},{"internalType":"uint256","name":"minScore","type":"uint256"}],"name":"hashPolicy","outputs":[{"internalType":"bytes32","name":"","type":"bytes32"}],"stateMutability":"pure","type":"function"},{"inputs":[],"name":"listPolicies","outputs":[{"internalType":"bytes32[]","name":"","type":"bytes32[]"}],"stateMutability":"view","type":"function"},{"inputs":[],"name":"owner","outputs":[{"internalType":"address","name":"","type":"address"}],"stateMutability":"view","type":"function"},{"inputs":[{"internalType":"bytes32","name":"","type":"bytes32"}],"name":"policies","outputs":[{"internalType":"string","name":"name","type":"string"},{"internalType":"uint256","name":"minTrustScore","type":"uint256"},{"internalType":"uint256","name":"minBand","type":"uint256"},{"internalType":"bool","name":"requireHuman","type":"bool"},{"internalType":"bool","name":"requireCredential","type":"bool"},{"internalType":"bool","name":"active","type":"bool"}],"stateMutability":"view","type":"function"},{"inputs":[{"internalType":"uint256","name":"","type":"uint256"}],"name":"policyIds","outputs":[{"internalType":"bytes32","name":"","type":"bytes32"}],"stateMutability":"view","type":"function"},{"inputs":[],"name":"renounceOwnership","outputs":[],"stateMutability":"nonpayable","type":"function"},{"inputs":[{"internalType":"address","name":"newOwner","type":"address"}],"name":"transferOwnership","outputs":[],"stateMutability":"nonpayable","type":"function"},{"inputs":[{"internalType":"bytes32","name":"policyId","type":"bytes32"},{"internalType":"uint256","name":"_minTrustScore","type":"uint256"},{"internalType":"uint256","name":"_minBand","type":"uint256"},{"internalType":"bool","name":"_requireHuman","type":"bool"},{"internalType":"bool","name":"_requireCredential","type":"bool"}],"name":"updatePolicy","outputs":[],"stateMutability":"nonpayable","type":"function"},{"inputs":[{"internalType":"address","name":"","type":"address"},{"internalType":"bytes32","name":"","type":"bytes32"}],"name":"userPolicyApprovals","outputs":[{"internalType":"bool","name":"","type":"bool"}],"stateMutability":"view","type":"function"}],"evm":{"bytecode":{"linkReferences":{},"object":"6080346100bb57601f61137338819003918201601f19168301916001600160401b038311848410176100c0578084926020946040528339810103126100bb57516001600160a01b0390818116908190036100bb5780156100a257600080546001600160a01b03198116831782556040519316907f8be0079c531659141344cd1fd0a4f28419497f9722a3daafe3b4186f6b6457e09080a361129c90816100d78239f35b604051631e4fbdf760e01b815260006004820152602490fd5b600080fd5b634e487b7160e01b600052604160045260246000fdfe6080604052600436101561001257600080fd5b60003560e01c80627b5561146109c5578063148e7b421461090f5780631b3d680d1461082c5780632f500f6c146107f55780636750e24d146106ab5780636c67c8d41461077a578063715018a6146107215780638da5cb5b146106f857806396bda534146106ab578063a3f685f914610619578063d806a5f3146105e8578063ddbfd8ef14610588578063e7b53afb146101f4578063ee7cea82146101535763f2fde38b146100c057600080fd5b3461014e57602036600319011261014e576100d9610d9f565b6100e161121a565b6001600160a01b0390811690811561013557600054826bffffffffffffffffffffffff60a01b821617600055167f8be0079c531659141344cd1fd0a4f28419497f9722a3daafe3b4186f6b6457e0600080a3005b604051631e4fbdf760e01b815260006004820152602490fd5b600080fd5b3461014e57606036600319011261014e5760043567ffffffffffffffff811161014e57610184903690600401610cec565b602435906001600160a01b038216820361014e576020916101e960546040518093866101b98184019788815193849201610db5565b8201906bffffffffffffffffffffffff199060601b16878201526044356034820152036034810184520182610cca565b519020604051908152f35b3461014e5761020236610e37565b94509260009291925260019384602052604060002060ff60036040519261022884610c92565b61023181610eb9565b845288810154602085015260028101546040850152015481811615156060840152818160081c161515608084015260101c1615801560a0830152610576578594604051948560a081011067ffffffffffffffff60a0880111176105605760a086016040526004865260005b6080811061054f57506000946020840151116104f7575b604083015111610498575b60608201511515908161048f575b50610430575b6080015115159081610427575b506103d2575b6102f1819492946111bc565b936102ff6040519586610cca565b818552601f1961030e836111bc565b0160005b8181106103bf57505060005b82811061039157505050604051916040830190151583526040602084015283518091526060830190602060608260051b8601019501916000905b8282106103655785870386f35b909192936020806103818399605f198a82030186528851610dd8565b9896019493919091019101610358565b928361039f82979584611206565b516103aa8287611206565b526103b58186611206565b500194929461031e565b6060602082890181019190915201610312565b915061041e6103e0836111d4565b926040516103ed81610cae565b601381527210dc9959195b9d1a585b081c995c5d5a5c9959606a1b60208201526104178285611206565b5282611206565b506000916102e5565b905015856102df565b935061048661043e836111d4565b9260405161044b81610cae565b601b81527f48756d616e20766572696669636174696f6e2072657175697265640000000000602082015261047f8287611206565b5284611206565b506000936102d2565b905015876102cc565b94506104ee6104a6846111d4565b936040516104b381610cae565b601881527f54727573742062616e642062656c6f77206d696e696d756d000000000000000060208201526104e78288611206565b5285611206565b506000946102be565b95509250859260405161050981610cae565b601981527f54727573742073636f72652062656c6f77206d696e696d756d00000000000000602082015261053c866111f9565b52610546856111f9565b506000956102b3565b806060602080938a0101520161029c565b634e487b7160e01b600052604160045260246000fd5b604051632f043fdf60e21b8152600490fd5b3461014e57602036600319011261014e57600435600052600160205260406000206105b281610eb9565b906105e460018201546003600284015493015460405194859460ff8360101c169360ff808560081c1694169287610dfd565b0390f35b3461014e57602061060f6105fb36610e37565b9461060a94919493929361121a565b610f5e565b6040519015158152f35b3461014e57602036600319011261014e57600435600052600160205260406000206040519061064782610c92565b6105e460a061065583610eb9565b92838552600181015494856020820152600360028301549283604084015201549160ff831615159182606082015260ff808560081c1615159485608084015260101c161515948591015260405196879687610dfd565b3461014e57604036600319011261014e576001600160a01b036106cc610d9f565b1660005260036020526040600020602435600052602052602060ff604060002054166040519015158152f35b3461014e57600036600319011261014e576000546040516001600160a01b039091168152602090f35b3461014e57600036600319011261014e5761073a61121a565b600080546001600160a01b0319811682556001600160a01b03167f8be0079c531659141344cd1fd0a4f28419497f9722a3daafe3b4186f6b6457e08280a3005b3461014e57602036600319011261014e5760043561079661121a565b80600052600160205260ff60036040600020015460101c161561057657806000526001602052600360406000200162ff00001981541690557f44ed21367569c548b0fe61f23f2031f4482314f67ad09c77933f3531103f41d5600080a2005b3461014e57602036600319011261014e5760043560025481101561014e5761081e602091610d52565b90546040519160031b1c8152f35b3461014e5760a036600319011261014e57600435604435606435801515810361014e57610857610d43565b9061086061121a565b83600052600160205260ff60036040600020015460101c161561057657600583116108fd576108be60036108d694866000526001602052604060002090602435600183015560028201550191829060ff801983541691151516179055565b9061ff00825491151560081b169061ff001916179055565b7f58722cff4cfeaed2eb7043b72ff6922d9843ac754c33e201627de9bffd23b97a600080a2005b604051634ab802f560e11b8152600490fd5b3461014e57600036600319011261014e57604051806002548083526020809301809160026000527f405787fa12a823e0f2b7631cc41b3ba8828b3321ca811111fa75cd3aa3bb5ace9060005b868282106109b157868661097182880383610cca565b604051928392818401908285525180915260408401929160005b82811061099a57505050500390f35b83518552869550938101939281019260010161098b565b83548552909301926001928301920161095b565b3461014e5760c036600319011261014e5767ffffffffffffffff60243581811161014e576109f7903690600401610cec565b90610a00610d43565b9060a43580151580910361014e57610a1661121a565b600435600052600160205260ff60036040600020015460101c16610c80576005606435116108fd5760405192610a4b84610c92565b84845260443560208501526064356040850152151560608401526080830152600160a083015260043560005260016020526040600020908251805191821161056057610a978354610e7f565b601f8111610c3c575b50602090601f8311600114610bce57918060a09492600394600092610bc3575b50508160011b9160001990851b1c19161781555b60208401516001820155604084015160028201550191610b0660608201511515849060ff801983541691151516179055565b6080810151835461ff00191690151560081b61ff00161783550151815462ff0000191690151560101b62ff0000161790556002546801000000000000000081101561056057806001610b5b9201600255610d52565b81549060031b90600435821b91600019901b19161790557f39e22d12e2b732793f8bd07ef82d8b6e6e397552ed92b613bddd0bf90826fb4f610ba860405192606084526060840190610dd8565b916044356020820152606435604082015280600435930390a2005b015190508780610ac0565b908360005260206000209160005b601f1985168110610c2457509260a0949260019260039583601f19811610610c0c575b505050811b018155610ad4565b015160001983871b60f8161c19169055878080610bff565b91926020600181928685015181550194019201610bdc565b836000526020600020601f840160051c810160208510610c79575b601f830160051c82018110610c6d575050610aa0565b60008155600101610c57565b5080610c57565b6040516342693d1160e11b8152600490fd5b60c0810190811067ffffffffffffffff82111761056057604052565b6040810190811067ffffffffffffffff82111761056057604052565b90601f8019910116810190811067ffffffffffffffff82111761056057604052565b81601f8201121561014e5780359067ffffffffffffffff82116105605760405192610d21601f8401601f191660200185610cca565b8284526020838301011161014e57816000926020809301838601378301015290565b60843590811515820361014e57565b600254811015610d895760026000527f405787fa12a823e0f2b7631cc41b3ba8828b3321ca811111fa75cd3aa3bb5ace0190600090565b634e487b7160e01b600052603260045260246000fd5b600435906001600160a01b038216820361014e57565b60005b838110610dc85750506000910152565b8181015183820152602001610db8565b90602091610df181518092818552858086019101610db5565b601f01601f1916010190565b9491969592610e1760a0959260c0885260c0880190610dd8565b976020870152604086015215156060850152151560808401521515910152565b60c090600319011261014e576004356001600160a01b038116810361014e5790602435906044359060643590608435801515810361014e579060a435801515810361014e5790565b90600182811c92168015610eaf575b6020831014610e9957565b634e487b7160e01b600052602260045260246000fd5b91607f1691610e8e565b90604051918260008254610ecc81610e7f565b90818452602094600191600181169081600014610f3c5750600114610efd575b505050610efb92500383610cca565b565b600090815285812095935091905b818310610f24575050610efb9350820101388080610eec565b85548884018501529485019487945091830191610f0b565b92505050610efb94925060ff191682840152151560051b820101388080610eec565b94929391909360009385855260209060018252604094858720908651610f8381610c92565b610f8c83610eb9565b815260018301549285820193845260036002820154918a8401928352015493606083019260ff86161515845260ff6080820196818160081c161515885260101c16159060a082159101526111ab5751881061115c5751861061110f575115159081611106575b506110b05751151590816110a7575b5061105d57837f764ecbf951f6b486a679b3f6d5b677547068829e18b7e2892b59c9e718f0823495969760018060a01b03169687815260038352818120898252835220600160ff198254161790558351928352820152a3600190565b93959050606091507210dc9959195b9d1a585b081c995c5d5a5c9959606a1b83601360008051602061124783398151915295519680885287015285015260018060a01b031692a390565b90501538611001565b505093959050606091507f48756d616e20766572696669636174696f6e207265717569726564000000000083601b60008051602061124783398151915295519680885287015285015260018060a01b031692a390565b90501538610ff2565b5050505093959050606091507154727573742062616e6420746f6f206c6f7760701b83601260008051602061124783398151915295519680885287015285015260018060a01b031692a390565b505050505093959050606091507254727573742073636f726520746f6f206c6f7760681b83601360008051602061124783398151915295519680885287015285015260018060a01b031692a390565b8951632f043fdf60e21b8152600490fd5b67ffffffffffffffff81116105605760051b60200190565b60001981146111e35760010190565b634e487b7160e01b600052601160045260246000fd5b805115610d895760200190565b8051821015610d895760209160051b010190565b6000546001600160a01b0316330361122e57565b60405163118cdaa760e01b8152336004820152602490fdfe429a5358a12a1c6db3723b143698c5f4a3d3822cd9237745d3fcb6fbb9d9156ca2646970667358221220c3c1cedf2eee9b06d3ebb760275e936c9d18d0ce3ca759e409d46dd668642c7864736f6c63430008180033","opcodes":"PUSH1 0x80 CALLVALUE PUSH2 0xBB JUMPI PUSH1 0x1F PUSH2 0x1373 CODESIZE DUP2 SWAP1 SUB SWAP2 DUP3 ADD PUSH1 0x1F NOT AND DUP4 ADD SWAP2 PUSH1 0x1 PUSH1 0x1 PUSH1 0x40 SHL SUB DUP4 GT DUP5 DUP5 LT OR PUSH2 0xC0 JUMPI DUP1 DUP5 SWAP3 PUSH1 0x20 SWAP5 PUSH1 0x40 MSTORE DUP4 CODECOPY DUP2 ADD SUB SLT PUSH2 0xBB JUMPI MLOAD PUSH1 0x1 PUSH1 0x1 PUSH1 0xA0 SHL SUB SWAP1 DUP2 DUP2 AND SWAP1 DUP2 SWAP1 SUB PUSH2 0xBB JUMPI DUP1 ISZERO PUSH2 0xA2 JUMPI PUSH1 0x0 DUP1 SLOAD PUSH1 0x1 PUSH1 0x1 PUSH1 0xA0 SHL SUB NOT DUP2 AND DUP4 OR DUP3 SSTORE PUSH1 0x40 MLOAD SWAP4 AND SWAP1 PUSH32 0x8BE0079C531659141344CD1FD0A4F28419497F9722A3DAAFE3B4186F6B6457E0 SWAP1 DUP1 LOG3 PUSH2 0x129C SWAP1 DUP2 PUSH2 0xD7 DUP3 CODECOPY RETURN JUMPDEST PUSH1 0x40 MLOAD PUSH4 0x1E4FBDF7 PUSH1 0xE0 SHL DUP2 MSTORE PUSH1 0x0 PUSH1 0x4 DUP3 ADD MSTORE PUSH1 0x24 SWAP1 REVERT JUMPDEST PUSH1 0x0 DUP1 REVERT JUMPDEST PUSH4 0x4E487B71 PUSH1 0xE0 SHL PUSH1 0x0 MSTORE PUSH1 0x41 PUSH1 0x4 MSTORE PUSH1 0x24 PUSH1 0x0 REVERT INVALID PUSH1 0x80 PUSH1 0x40 MSTORE PUSH1 0x4 CALLDATASIZE LT ISZERO PUSH2 0x12 JUMPI PUSH1 0x0 DUP1 REVERT JUMPDEST PUSH1 0x0 CALLDATALOAD PUSH1 0xE0 SHR DUP1 PUSH3 0x7B5561 EQ PUSH2 0x9C5 JUMPI DUP1 PUSH4 0x148E7B42 EQ PUSH2 0x90F JUMPI DUP1 PUSH4 0x1B3D680D EQ PUSH2 0x82C JUMPI DUP1 PUSH4 0x2F500F6C EQ PUSH2 0x7F5 JUMPI DUP1 PUSH4 0x6750E24D EQ PUSH2 0x6AB JUMPI DUP1 PUSH4 0x6C67C8D4 EQ PUSH2 0x77A JUMPI DUP1 PUSH4 0x715018A6 EQ PUSH2 0x721 JUMPI DUP1 PUSH4 0x8DA5CB5B EQ PUSH2 0x6F8 JUMPI DUP1 PUSH4 0x96BDA534 EQ PUSH2 0x6AB JUMPI DUP1 PUSH4 0xA3F685F9 EQ PUSH2 0x619 JUMPI DUP1 PUSH4 0xD806A5F3 EQ PUSH2 0x5E8 JUMPI DUP1 PUSH4 0xDDBFD8EF EQ PUSH2 0x588 JUMPI DUP1 PUSH4 0xE7B53AFB EQ PUSH2 0x1F4 JUMPI DUP1 PUSH4 0xEE7CEA82 EQ PUSH2 0x153 JUMPI PUSH4 0xF2FDE38B EQ PUSH2 0xC0 JUMPI PUSH1 0x0 DUP1 REVERT JUMPDEST CALLVALUE PUSH2 0x14E JUMPI PUSH1 0x20 CALLDATASIZE PUSH1 0x3 NOT ADD SLT PUSH2 0x14E JUMPI PUSH2 0xD9 PUSH2 0xD9F JUMP JUMPDEST PUSH2 0xE1 PUSH2 0x121A JUMP JUMPDEST PUSH1 0x1 PUSH1 0x1 PUSH1 0xA0 SHL SUB SWAP1 DUP2 AND SWAP1 DUP2 ISZERO PUSH2 0x135 JUMPI PUSH1 0x0 SLOAD DUP3 PUSH12 0xFFFFFFFFFFFFFFFFFFFFFFFF PUSH1 0xA0 SHL DUP3 AND OR PUSH1 0x0 SSTORE AND PUSH32 0x8BE0079C531659141344CD1FD0A4F28419497F9722A3DAAFE3B4186F6B6457E0 PUSH1 0x0 DUP1 LOG3 STOP JUMPDEST PUSH1 0x40 MLOAD PUSH4 0x1E4FBDF7 PUSH1 0xE0 SHL DUP2 MSTORE PUSH1 0x0 PUSH1 0x4 DUP3 ADD MSTORE PUSH1 0x24 SWAP1 REVERT JUMPDEST PUSH1 0x0 DUP1 REVERT JUMPDEST CALLVALUE PUSH2 0x14E JUMPI PUSH1 0x60 CALLDATASIZE PUSH1 0x3 NOT ADD SLT PUSH2 0x14E JUMPI PUSH1 0x4 CALLDATALOAD PUSH8 0xFFFFFFFFFFFFFFFF DUP2 GT PUSH2 0x14E JUMPI PUSH2 0x184 SWAP1 CALLDATASIZE SWAP1 PUSH1 0x4 ADD PUSH2 0xCEC JUMP JUMPDEST PUSH1 0x24 CALLDATALOAD SWAP1 PUSH1 0x1 PUSH1 0x1 PUSH1 0xA0 SHL SUB DUP3 AND DUP3 SUB PUSH2 0x14E JUMPI PUSH1 0x20 SWAP2 PUSH2 0x1E9 PUSH1 0x54 PUSH1 0x40 MLOAD DUP1 SWAP4 DUP7 PUSH2 0x1B9 DUP2 DUP5 ADD SWAP8 DUP9 DUP2 MLOAD SWAP4 DUP5 SWAP3 ADD PUSH2 0xDB5 JUMP JUMPDEST DUP3 ADD SWAP1 PUSH12 0xFFFFFFFFFFFFFFFFFFFFFFFF NOT SWAP1 PUSH1 0x60 SHL AND DUP8 DUP3 ADD MSTORE PUSH1 0x44 CALLDATALOAD PUSH1 0x34 DUP3 ADD MSTORE SUB PUSH1 0x34 DUP2 ADD DUP5 MSTORE ADD DUP3 PUSH2 0xCCA JUMP JUMPDEST MLOAD SWAP1 KECCAK256 PUSH1 0x40 MLOAD SWAP1 DUP2 MSTORE RETURN JUMPDEST CALLVALUE PUSH2 0x14E JUMPI PUSH2 0x202 CALLDATASIZE PUSH2 0xE37 JUMP JUMPDEST SWAP5 POP SWAP3 PUSH1 0x0 SWAP3 SWAP2 SWAP3 MSTORE PUSH1 0x1 SWAP4 DUP5 PUSH1 0x20 MSTORE PUSH1 0x40 PUSH1 0x0 KECCAK256 PUSH1 0xFF PUSH1 0x3 PUSH1 0x40 MLOAD SWAP3 PUSH2 0x228 DUP5 PUSH2 0xC92 JUMP JUMPDEST PUSH2 0x231 DUP2 PUSH2 0xEB9 JUMP JUMPDEST DUP5 MSTORE DUP9 DUP2 ADD SLOAD PUSH1 0x20 DUP6 ADD MSTORE PUSH1 0x2 DUP2 ADD SLOAD PUSH1 0x40 DUP6 ADD MSTORE ADD SLOAD DUP2 DUP2 AND ISZERO ISZERO PUSH1 0x60 DUP5 ADD MSTORE DUP2 DUP2 PUSH1 0x8 SHR AND ISZERO ISZERO PUSH1 0x80 DUP5 ADD MSTORE PUSH1 0x10 SHR AND ISZERO DUP1 ISZERO PUSH1 0xA0 DUP4 ADD MSTORE PUSH2 0x576 JUMPI DUP6 SWAP5 PUSH1 0x40 MLOAD SWAP5 DUP6 PUSH1 0xA0 DUP2 ADD LT PUSH8 0xFFFFFFFFFFFFFFFF PUSH1 0xA0 DUP9 ADD GT OR PUSH2 0x560 JUMPI PUSH1 0xA0 DUP7 ADD PUSH1 0x40 MSTORE PUSH1 0x4 DUP7 MSTORE PUSH1 0x0 JUMPDEST PUSH1 0x80 DUP2 LT PUSH2 0x54F JUMPI POP PUSH1 0x0 SWAP5 PUSH1 0x20 DUP5 ADD MLOAD GT PUSH2 0x4F7 JUMPI JUMPDEST PUSH1 0x40 DUP4 ADD MLOAD GT PUSH2 0x498 JUMPI JUMPDEST PUSH1 0x60 DUP3 ADD MLOAD ISZERO ISZERO SWAP1 DUP2 PUSH2 0x48F JUMPI JUMPDEST POP PUSH2 0x430 JUMPI JUMPDEST PUSH1 0x80 ADD MLOAD ISZERO ISZERO SWAP1 DUP2 PUSH2 0x427 JUMPI JUMPDEST POP PUSH2 0x3D2 JUMPI JUMPDEST PUSH2 0x2F1 DUP2 SWAP5 SWAP3 SWAP5 PUSH2 0x11BC JUMP JUMPDEST SWAP4 PUSH2 0x2FF PUSH1 0x40 MLOAD SWAP6 DUP7 PUSH2 0xCCA JUMP JUMPDEST DUP2 DUP6 MSTORE PUSH1 0x1F NOT PUSH2 0x30E DUP4 PUSH2 0x11BC JUMP JUMPDEST ADD PUSH1 0x0 JUMPDEST DUP2 DUP2 LT PUSH2 0x3BF JUMPI POP POP PUSH1 0x0 JUMPDEST DUP3 DUP2 LT PUSH2 0x391 JUMPI POP POP POP PUSH1 0x40 MLOAD SWAP2 PUSH1 0x40 DUP4 ADD SWAP1 ISZERO ISZERO DUP4 MSTORE PUSH1 0x40 PUSH1 0x20 DUP5 ADD MSTORE DUP4 MLOAD DUP1 SWAP2 MSTORE PUSH1 0x60 DUP4 ADD SWAP1 PUSH1 0x20 PUSH1 0x60 DUP3 PUSH1 0x5 SHL DUP7 ADD ADD SWAP6 ADD SWAP2 PUSH1 0x0 SWAP1 JUMPDEST DUP3 DUP3 LT PUSH2 0x365 JUMPI DUP6 DUP8 SUB DUP7 RETURN JUMPDEST SWAP1 SWAP2 SWAP3 SWAP4 PUSH1 0x20 DUP1 PUSH2 0x381 DUP4 SWAP10 PUSH1 0x5F NOT DUP11 DUP3 SUB ADD DUP7 MSTORE DUP9 MLOAD PUSH2 0xDD8 JUMP JUMPDEST SWAP9 SWAP7 ADD SWAP5 SWAP4 SWAP2 SWAP1 SWAP2 ADD SWAP2 ADD PUSH2 0x358 JUMP JUMPDEST SWAP3 DUP4 PUSH2 0x39F DUP3 SWAP8 SWAP6 DUP5 PUSH2 0x1206 JUMP JUMPDEST MLOAD PUSH2 0x3AA DUP3 DUP8 PUSH2 0x1206 JUMP JUMPDEST MSTORE PUSH2 0x3B5 DUP2 DUP7 PUSH2 0x1206 JUMP JUMPDEST POP ADD SWAP5 SWAP3 SWAP5 PUSH2 0x31E JUMP JUMPDEST PUSH1 0x60 PUSH1 0x20 DUP3 DUP10 ADD DUP2 ADD SWAP2 SWAP1 SWAP2 MSTORE ADD PUSH2 0x312 JUMP JUMPDEST SWAP2 POP PUSH2 0x41E PUSH2 0x3E0 DUP4 PUSH2 0x11D4 JUMP JUMPDEST SWAP3 PUSH1 0x40 MLOAD PUSH2 0x3ED DUP2 PUSH2 0xCAE JUMP JUMPDEST PUSH1 0x13 DUP2 MSTORE PUSH19 0x10DC9959195B9D1A585B081C995C5D5A5C9959 PUSH1 0x6A SHL PUSH1 0x20 DUP3 ADD MSTORE PUSH2 0x417 DUP3 DUP6 PUSH2 0x1206 JUMP JUMPDEST MSTORE DUP3 PUSH2 0x1206 JUMP JUMPDEST POP PUSH1 0x0 SWAP2 PUSH2 0x2E5 JUMP JUMPDEST SWAP1 POP ISZERO DUP6 PUSH2 0x2DF JUMP JUMPDEST SWAP4 POP PUSH2 0x486 PUSH2 0x43E DUP4 PUSH2 0x11D4 JUMP JUMPDEST SWAP3 PUSH1 0x40 MLOAD PUSH2 0x44B DUP2 PUSH2 0xCAE JUMP JUMPDEST PUSH1 0x1B DUP2 MSTORE PUSH32 0x48756D616E20766572696669636174696F6E2072657175697265640000000000 PUSH1 0x20 DUP3 ADD MSTORE PUSH2 0x47F DUP3 DUP8 PUSH2 0x1206 JUMP JUMPDEST MSTORE DUP5 PUSH2 0x1206 JUMP JUMPDEST POP PUSH1 0x0 SWAP4 PUSH2 0x2D2 JUMP JUMPDEST SWAP1 POP ISZERO DUP8 PUSH2 0x2CC JUMP JUMPDEST SWAP5 POP PUSH2 0x4EE PUSH2 0x4A6 DUP5 PUSH2 0x11D4 JUMP JUMPDEST SWAP4 PUSH1 0x40 MLOAD PUSH2 0x4B3 DUP2 PUSH2 0xCAE JUMP JUMPDEST PUSH1 0x18 DUP2 MSTORE PUSH32 0x54727573742062616E642062656C6F77206D696E696D756D0000000000000000 PUSH1 0x20 DUP3 ADD MSTORE PUSH2 0x4E7 DUP3 DUP9 PUSH2 0x1206 JUMP JUMPDEST MSTORE DUP6 PUSH2 0x1206 JUMP JUMPDEST POP PUSH1 0x0 SWAP5 PUSH2 0x2BE JUMP JUMPDEST SWAP6 POP SWAP3 POP DUP6 SWAP3 PUSH1 0x40 MLOAD PUSH2 0x509 DUP2 PUSH2 0xCAE JUMP JUMPDEST PUSH1 0x19 DUP2 MSTORE PUSH32 0x54727573742073636F72652062656C6F77206D696E696D756D00000000000000 PUSH1 0x20 DUP3 ADD MSTORE PUSH2 0x53C DUP7 PUSH2 0x11F9 JUMP JUMPDEST MSTORE PUSH2 0x546 DUP6 PUSH2 0x11F9 JUMP JUMPDEST POP PUSH1 0x0 SWAP6 PUSH2 0x2B3 JUMP JUMPDEST DUP1 PUSH1 0x60 PUSH1 0x20 DUP1 SWAP4 DUP11 ADD ADD MSTORE ADD PUSH2 0x29C JUMP JUMPDEST PUSH4 0x4E487B71 PUSH1 0xE0 SHL PUSH1 0x0 MSTORE PUSH1 0x41 PUSH1 0x4 MSTORE PUSH1 0x24 PUSH1 0x0 REVERT JUMPDEST PUSH1 0x40 MLOAD PUSH4 0x2F043FDF PUSH1 0xE2 SHL DUP2 MSTORE PUSH1 0x4 SWAP1 REVERT JUMPDEST CALLVALUE PUSH2 0x14E JUMPI PUSH1 0x20 CALLDATASIZE PUSH1 0x3 NOT ADD SLT PUSH2 0x14E JUMPI PUSH1 0x4 CALLDATALOAD PUSH1 0x0 MSTORE PUSH1 0x1 PUSH1 0x20 MSTORE PUSH1 0x40 PUSH1 0x0 KECCAK256 PUSH2 0x5B2 DUP2 PUSH2 0xEB9 JUMP JUMPDEST SWAP1 PUSH2 0x5E4 PUSH1 0x1 DUP3 ADD SLOAD PUSH1 0x3 PUSH1 0x2 DUP5 ADD SLOAD SWAP4 ADD SLOAD PUSH1 0x40 MLOAD SWAP5 DUP6 SWAP5 PUSH1 0xFF DUP4 PUSH1 0x10 SHR AND SWAP4 PUSH1 0xFF DUP1 DUP6 PUSH1 0x8 SHR AND SWAP5 AND SWAP3 DUP8 PUSH2 0xDFD JUMP JUMPDEST SUB SWAP1 RETURN JUMPDEST CALLVALUE PUSH2 0x14E JUMPI PUSH1 0x20 PUSH2 0x60F PUSH2 0x5FB CALLDATASIZE PUSH2 0xE37 JUMP JUMPDEST SWAP5 PUSH2 0x60A SWAP5 SWAP2 SWAP5 SWAP4 SWAP3 SWAP4 PUSH2 0x121A JUMP JUMPDEST PUSH2 0xF5E JUMP JUMPDEST PUSH1 0x40 MLOAD SWAP1 ISZERO ISZERO DUP2 MSTORE RETURN JUMPDEST CALLVALUE PUSH2 0x14E JUMPI PUSH1 0x20 CALLDATASIZE PUSH1 0x3 NOT ADD SLT PUSH2 0x14E JUMPI PUSH1 0x4 CALLDATALOAD PUSH1 0x0 MSTORE PUSH1 0x1 PUSH1 0x20 MSTORE PUSH1 0x40 PUSH1 0x0 KECCAK256 PUSH1 0x40 MLOAD SWAP1 PUSH2 0x647 DUP3 PUSH2 0xC92 JUMP JUMPDEST PUSH2 0x5E4 PUSH1 0xA0 PUSH2 0x655 DUP4 PUSH2 0xEB9 JUMP JUMPDEST SWAP3 DUP4 DUP6 MSTORE PUSH1 0x1 DUP2 ADD SLOAD SWAP5 DUP6 PUSH1 0x20 DUP3 ADD MSTORE PUSH1 0x3 PUSH1 0x2 DUP4 ADD SLOAD SWAP3 DUP4 PUSH1 0x40 DUP5 ADD MSTORE ADD SLOAD SWAP2 PUSH1 0xFF DUP4 AND ISZERO ISZERO SWAP2 DUP3 PUSH1 0x60 DUP3 ADD MSTORE PUSH1 0xFF DUP1 DUP6 PUSH1 0x8 SHR AND ISZERO ISZERO SWAP5 DUP6 PUSH1 0x80 DUP5 ADD MSTORE PUSH1 0x10 SHR AND ISZERO ISZERO SWAP5 DUP6 SWAP2 ADD MSTORE PUSH1 0x40 MLOAD SWAP7 DUP8 SWAP7 DUP8 PUSH2 0xDFD JUMP JUMPDEST CALLVALUE PUSH2 0x14E JUMPI PUSH1 0x40 CALLDATASIZE PUSH1 0x3 NOT ADD SLT PUSH2 0x14E JUMPI PUSH1 0x1 PUSH1 0x1 PUSH1 0xA0 SHL SUB PUSH2 0x6CC PUSH2 0xD9F JUMP JUMPDEST AND PUSH1 0x0 MSTORE PUSH1 0x3 PUSH1 0x20 MSTORE PUSH1 0x40 PUSH1 0x0 KECCAK256 PUSH1 0x24 CALLDATALOAD PUSH1 0x0 MSTORE PUSH1 0x20 MSTORE PUSH1 0x20 PUSH1 0xFF PUSH1 0x40 PUSH1 0x0 KECCAK256 SLOAD AND PUSH1 0x40 MLOAD SWAP1 ISZERO ISZERO DUP2 MSTORE RETURN JUMPDEST CALLVALUE PUSH2 0x14E JUMPI PUSH1 0x0 CALLDATASIZE PUSH1 0x3 NOT ADD SLT PUSH2 0x14E JUMPI PUSH1 0x0 SLOAD PUSH1 0x40 MLOAD PUSH1 0x1 PUSH1 0x1 PUSH1 0xA0 SHL SUB SWAP1 SWAP2 AND DUP2 MSTORE PUSH1 0x20 SWAP1 RETURN JUMPDEST CALLVALUE PUSH2 0x14E JUMPI PUSH1 0x0 CALLDATASIZE PUSH1 0x3 NOT ADD SLT PUSH2 0x14E JUMPI PUSH2 0x73A PUSH2 0x121A JUMP JUMPDEST PUSH1 0x0 DUP1 SLOAD PUSH1 0x1 PUSH1 0x1 PUSH1 0xA0 SHL SUB NOT DUP2 AND DUP3 SSTORE PUSH1 0x1 PUSH1 0x1 PUSH1 0xA0 SHL SUB AND PUSH32 0x8BE0079C531659141344CD1FD0A4F28419497F9722A3DAAFE3B4186F6B6457E0 DUP3 DUP1 LOG3 STOP JUMPDEST CALLVALUE PUSH2 0x14E JUMPI PUSH1 0x20 CALLDATASIZE PUSH1 0x3 NOT ADD SLT PUSH2 0x14E JUMPI PUSH1 0x4 CALLDATALOAD PUSH2 0x796 PUSH2 0x121A JUMP JUMPDEST DUP1 PUSH1 0x0 MSTORE PUSH1 0x1 PUSH1 0x20 MSTORE PUSH1 0xFF PUSH1 0x3 PUSH1 0x40 PUSH1 0x0 KECCAK256 ADD SLOAD PUSH1 0x10 SHR AND ISZERO PUSH2 0x576 JUMPI DUP1 PUSH1 0x0 MSTORE PUSH1 0x1 PUSH1 0x20 MSTORE PUSH1 0x3 PUSH1 0x40 PUSH1 0x0 KECCAK256 ADD PUSH3 0xFF0000 NOT DUP2 SLOAD AND SWAP1 SSTORE PUSH32 0x44ED21367569C548B0FE61F23F2031F4482314F67AD09C77933F3531103F41D5 PUSH1 0x0 DUP1 LOG2 STOP JUMPDEST CALLVALUE PUSH2 0x14E JUMPI PUSH1 0x20 CALLDATASIZE PUSH1 0x3 NOT ADD SLT PUSH2 0x14E JUMPI PUSH1 0x4 CALLDATALOAD PUSH1 0x2 SLOAD DUP2 LT ISZERO PUSH2 0x14E JUMPI PUSH2 0x81E PUSH1 0x20 SWAP2 PUSH2 0xD52 JUMP JUMPDEST SWAP1 SLOAD PUSH1 0x40 MLOAD SWAP2 PUSH1 0x3 SHL SHR DUP2 MSTORE RETURN JUMPDEST CALLVALUE PUSH2 0x14E JUMPI PUSH1 0xA0 CALLDATASIZE PUSH1 0x3 NOT ADD SLT PUSH2 0x14E JUMPI PUSH1 0x4 CALLDATALOAD PUSH1 0x44 CALLDATALOAD PUSH1 0x64 CALLDATALOAD DUP1 ISZERO ISZERO DUP2 SUB PUSH2 0x14E JUMPI PUSH2 0x857 PUSH2 0xD43 JUMP JUMPDEST SWAP1 PUSH2 0x860 PUSH2 0x121A JUMP JUMPDEST DUP4 PUSH1 0x0 MSTORE PUSH1 0x1 PUSH1 0x20 MSTORE PUSH1 0xFF PUSH1 0x3 PUSH1 0x40 PUSH1 0x0 KECCAK256 ADD SLOAD PUSH1 0x10 SHR AND ISZERO PUSH2 0x576 JUMPI PUSH1 0x5 DUP4 GT PUSH2 0x8FD JUMPI PUSH2 0x8BE PUSH1 0x3 PUSH2 0x8D6 SWAP5 DUP7 PUSH1 0x0 MSTORE PUSH1 0x1 PUSH1 0x20 MSTORE PUSH1 0x40 PUSH1 0x0 KECCAK256 SWAP1 PUSH1 0x24 CALLDATALOAD PUSH1 0x1 DUP4 ADD SSTORE PUSH1 0x2 DUP3 ADD SSTORE ADD SWAP2 DUP3 SWAP1 PUSH1 0xFF DUP1 NOT DUP4 SLOAD AND SWAP2 ISZERO ISZERO AND OR SWAP1 SSTORE JUMP JUMPDEST SWAP1 PUSH2 0xFF00 DUP3 SLOAD SWAP2 ISZERO ISZERO PUSH1 0x8 SHL AND SWAP1 PUSH2 0xFF00 NOT AND OR SWAP1 SSTORE JUMP JUMPDEST PUSH32 0x58722CFF4CFEAED2EB7043B72FF6922D9843AC754C33E201627DE9BFFD23B97A PUSH1 0x0 DUP1 LOG2 STOP JUMPDEST PUSH1 0x40 MLOAD PUSH4 0x4AB802F5 PUSH1 0xE1 SHL DUP2 MSTORE PUSH1 0x4 SWAP1 REVERT JUMPDEST CALLVALUE PUSH2 0x14E JUMPI PUSH1 0x0 CALLDATASIZE PUSH1 0x3 NOT ADD SLT PUSH2 0x14E JUMPI PUSH1 0x40 MLOAD DUP1 PUSH1 0x2 SLOAD DUP1 DUP4 MSTORE PUSH1 0x20 DUP1 SWAP4 ADD DUP1 SWAP2 PUSH1 0x2 PUSH1 0x0 MSTORE PUSH32 0x405787FA12A823E0F2B7631CC41B3BA8828B3321CA811111FA75CD3AA3BB5ACE SWAP1 PUSH1 0x0 JUMPDEST DUP7 DUP3 DUP3 LT PUSH2 0x9B1 JUMPI DUP7 DUP7 PUSH2 0x971 DUP3 DUP9 SUB DUP4 PUSH2 0xCCA JUMP JUMPDEST PUSH1 0x40 MLOAD SWAP3 DUP4 SWAP3 DUP2 DUP5 ADD SWAP1 DUP3 DUP6 MSTORE MLOAD DUP1 SWAP2 MSTORE PUSH1 0x40 DUP5 ADD SWAP3 SWAP2 PUSH1 0x0 JUMPDEST DUP3 DUP2 LT PUSH2 0x99A JUMPI POP POP POP POP SUB SWAP1 RETURN JUMPDEST DUP4 MLOAD DUP6 MSTORE DUP7 SWAP6 POP SWAP4 DUP2 ADD SWAP4 SWAP3 DUP2 ADD SWAP3 PUSH1 0x1 ADD PUSH2 0x98B JUMP JUMPDEST DUP4 SLOAD DUP6 MSTORE SWAP1 SWAP4 ADD SWAP3 PUSH1 0x1 SWAP3 DUP4 ADD SWAP3 ADD PUSH2 0x95B JUMP JUMPDEST CALLVALUE PUSH2 0x14E JUMPI PUSH1 0xC0 CALLDATASIZE PUSH1 0x3 NOT ADD SLT PUSH2 0x14E JUMPI PUSH8 0xFFFFFFFFFFFFFFFF PUSH1 0x24 CALLDATALOAD DUP2 DUP2 GT PUSH2 0x14E JUMPI PUSH2 0x9F7 SWAP1 CALLDATASIZE SWAP1 PUSH1 0x4 ADD PUSH2 0xCEC JUMP JUMPDEST SWAP1 PUSH2 0xA00 PUSH2 0xD43 JUMP JUMPDEST SWAP1 PUSH1 0xA4 CALLDATALOAD DUP1 ISZERO ISZERO DUP1 SWAP2 SUB PUSH2 0x14E JUMPI PUSH2 0xA16 PUSH2 0x121A JUMP JUMPDEST PUSH1 0x4 CALLDATALOAD PUSH1 0x0 MSTORE PUSH1 0x1 PUSH1 0x20 MSTORE PUSH1 0xFF PUSH1 0x3 PUSH1 0x40 PUSH1 0x0 KECCAK256 ADD SLOAD PUSH1 0x10 SHR AND PUSH2 0xC80 JUMPI PUSH1 0x5 PUSH1 0x64 CALLDATALOAD GT PUSH2 0x8FD JUMPI PUSH1 0x40 MLOAD SWAP3 PUSH2 0xA4B DUP5 PUSH2 0xC92 JUMP JUMPDEST DUP5 DUP5 MSTORE PUSH1 0x44 CALLDATALOAD PUSH1 0x20 DUP6 ADD MSTORE PUSH1 0x64 CALLDATALOAD PUSH1 0x40 DUP6 ADD MSTORE ISZERO ISZERO PUSH1 0x60 DUP5 ADD MSTORE PUSH1 0x80 DUP4 ADD MSTORE PUSH1 0x1 PUSH1 0xA0 DUP4 ADD MSTORE PUSH1 0x4 CALLDATALOAD PUSH1 0x0 MSTORE PUSH1 0x1 PUSH1 0x20 MSTORE PUSH1 0x40 PUSH1 0x0 KECCAK256 SWAP1 DUP3 MLOAD DUP1 MLOAD SWAP2 DUP3 GT PUSH2 0x560 JUMPI PUSH2 0xA97 DUP4 SLOAD PUSH2 0xE7F JUMP JUMPDEST PUSH1 0x1F DUP2 GT PUSH2 0xC3C JUMPI JUMPDEST POP PUSH1 0x20 SWAP1 PUSH1 0x1F DUP4 GT PUSH1 0x1 EQ PUSH2 0xBCE JUMPI SWAP2 DUP1 PUSH1 0xA0 SWAP5 SWAP3 PUSH1 0x3 SWAP5 PUSH1 0x0 SWAP3 PUSH2 0xBC3 JUMPI JUMPDEST POP POP DUP2 PUSH1 0x1 SHL SWAP2 PUSH1 0x0 NOT SWAP1 DUP6 SHL SHR NOT AND OR DUP2 SSTORE JUMPDEST PUSH1 0x20 DUP5 ADD MLOAD PUSH1 0x1 DUP3 ADD SSTORE PUSH1 0x40 DUP5 ADD MLOAD PUSH1 0x2 DUP3 ADD SSTORE ADD SWAP2 PUSH2 0xB06 PUSH1 0x60 DUP3 ADD MLOAD ISZERO ISZERO DUP5 SWAP1 PUSH1 0xFF DUP1 NOT DUP4 SLOAD AND SWAP2 ISZERO ISZERO AND OR SWAP1 SSTORE JUMP JUMPDEST PUSH1 0x80 DUP2 ADD MLOAD DUP4 SLOAD PUSH2 0xFF00 NOT AND SWAP1 ISZERO ISZERO PUSH1 0x8 SHL PUSH2 0xFF00 AND OR DUP4 SSTORE ADD MLOAD DUP2 SLOAD PUSH3 0xFF0000 NOT AND SWAP1 ISZERO ISZERO PUSH1 0x10 SHL PUSH3 0xFF0000 AND OR SWAP1 SSTORE PUSH1 0x2 SLOAD PUSH9 0x10000000000000000 DUP2 LT ISZERO PUSH2 0x560 JUMPI DUP1 PUSH1 0x1 PUSH2 0xB5B SWAP3 ADD PUSH1 0x2 SSTORE PUSH2 0xD52 JUMP JUMPDEST DUP2 SLOAD SWAP1 PUSH1 0x3 SHL SWAP1 PUSH1 0x4 CALLDATALOAD DUP3 SHL SWAP2 PUSH1 0x0 NOT SWAP1 SHL NOT AND OR SWAP1 SSTORE PUSH32 0x39E22D12E2B732793F8BD07EF82D8B6E6E397552ED92B613BDDD0BF90826FB4F PUSH2 0xBA8 PUSH1 0x40 MLOAD SWAP3 PUSH1 0x60 DUP5 MSTORE PUSH1 0x60 DUP5 ADD SWAP1 PUSH2 0xDD8 JUMP JUMPDEST SWAP2 PUSH1 0x44 CALLDATALOAD PUSH1 0x20 DUP3 ADD MSTORE PUSH1 0x64 CALLDATALOAD PUSH1 0x40 DUP3 ADD MSTORE DUP1 PUSH1 0x4 CALLDATALOAD SWAP4 SUB SWAP1 LOG2 STOP JUMPDEST ADD MLOAD SWAP1 POP DUP8 DUP1 PUSH2 0xAC0 JUMP JUMPDEST SWAP1 DUP4 PUSH1 0x0 MSTORE PUSH1 0x20 PUSH1 0x0 KECCAK256 SWAP2 PUSH1 0x0 JUMPDEST PUSH1 0x1F NOT DUP6 AND DUP2 LT PUSH2 0xC24 JUMPI POP SWAP3 PUSH1 0xA0 SWAP5 SWAP3 PUSH1 0x1 SWAP3 PUSH1 0x3 SWAP6 DUP4 PUSH1 0x1F NOT DUP2 AND LT PUSH2 0xC0C JUMPI JUMPDEST POP POP POP DUP2 SHL ADD DUP2 SSTORE PUSH2 0xAD4 JUMP JUMPDEST ADD MLOAD PUSH1 0x0 NOT DUP4 DUP8 SHL PUSH1 0xF8 AND SHR NOT AND SWAP1 SSTORE DUP8 DUP1 DUP1 PUSH2 0xBFF JUMP JUMPDEST SWAP2 SWAP3 PUSH1 0x20 PUSH1 0x1 DUP2 SWAP3 DUP7 DUP6 ADD MLOAD DUP2 SSTORE ADD SWAP5 ADD SWAP3 ADD PUSH2 0xBDC JUMP JUMPDEST DUP4 PUSH1 0x0 MSTORE PUSH1 0x20 PUSH1 0x0 KECCAK256 PUSH1 0x1F DUP5 ADD PUSH1 0x5 SHR DUP2 ADD PUSH1 0x20 DUP6 LT PUSH2 0xC79 JUMPI JUMPDEST PUSH1 0x1F DUP4 ADD PUSH1 0x5 SHR DUP3 ADD DUP2 LT PUSH2 0xC6D JUMPI POP POP PUSH2 0xAA0 JUMP JUMPDEST PUSH1 0x0 DUP2 SSTORE PUSH1 0x1 ADD PUSH2 0xC57 JUMP JUMPDEST POP DUP1 PUSH2 0xC57 JUMP JUMPDEST PUSH1 0x40 MLOAD PUSH4 0x42693D11 PUSH1 0xE1 SHL DUP2 MSTORE PUSH1 0x4 SWAP1 REVERT JUMPDEST PUSH1 0xC0 DUP2 ADD SWAP1 DUP2 LT PUSH8 0xFFFFFFFFFFFFFFFF DUP3 GT OR PUSH2 0x560 JUMPI PUSH1 0x40 MSTORE JUMP JUMPDEST PUSH1 0x40 DUP2 ADD SWAP1 DUP2 LT PUSH8 0xFFFFFFFFFFFFFFFF DUP3 GT OR PUSH2 0x560 JUMPI PUSH1 0x40 MSTORE JUMP JUMPDEST SWAP1 PUSH1 0x1F DUP1 NOT SWAP2 ADD AND DUP2 ADD SWAP1 DUP2 LT PUSH8 0xFFFFFFFFFFFFFFFF DUP3 GT OR PUSH2 0x560 JUMPI PUSH1 0x40 MSTORE JUMP JUMPDEST DUP2 PUSH1 0x1F DUP3 ADD SLT ISZERO PUSH2 0x14E JUMPI DUP1 CALLDATALOAD SWAP1 PUSH8 0xFFFFFFFFFFFFFFFF DUP3 GT PUSH2 0x560 JUMPI PUSH1 0x40 MLOAD SWAP3 PUSH2 0xD21 PUSH1 0x1F DUP5 ADD PUSH1 0x1F NOT AND PUSH1 0x20 ADD DUP6 PUSH2 0xCCA JUMP JUMPDEST DUP3 DUP5 MSTORE PUSH1 0x20 DUP4 DUP4 ADD ADD GT PUSH2 0x14E JUMPI DUP2 PUSH1 0x0 SWAP3 PUSH1 0x20 DUP1 SWAP4 ADD DUP4 DUP7 ADD CALLDATACOPY DUP4 ADD ADD MSTORE SWAP1 JUMP JUMPDEST PUSH1 0x84 CALLDATALOAD SWAP1 DUP2 ISZERO ISZERO DUP3 SUB PUSH2 0x14E JUMPI JUMP JUMPDEST PUSH1 0x2 SLOAD DUP2 LT ISZERO PUSH2 0xD89 JUMPI PUSH1 0x2 PUSH1 0x0 MSTORE PUSH32 0x405787FA12A823E0F2B7631CC41B3BA8828B3321CA811111FA75CD3AA3BB5ACE ADD SWAP1 PUSH1 0x0 SWAP1 JUMP JUMPDEST PUSH4 0x4E487B71 PUSH1 0xE0 SHL PUSH1 0x0 MSTORE PUSH1 0x32 PUSH1 0x4 MSTORE PUSH1 0x24 PUSH1 0x0 REVERT JUMPDEST PUSH1 0x4 CALLDATALOAD SWAP1 PUSH1 0x1 PUSH1 0x1 PUSH1 0xA0 SHL SUB DUP3 AND DUP3 SUB PUSH2 0x14E JUMPI JUMP JUMPDEST PUSH1 0x0 JUMPDEST DUP4 DUP2 LT PUSH2 0xDC8 JUMPI POP POP PUSH1 0x0 SWAP2 ADD MSTORE JUMP JUMPDEST DUP2 DUP2 ADD MLOAD DUP4 DUP3 ADD MSTORE PUSH1 0x20 ADD PUSH2 0xDB8 JUMP JUMPDEST SWAP1 PUSH1 0x20 SWAP2 PUSH2 0xDF1 DUP2 MLOAD DUP1 SWAP3 DUP2 DUP6 MSTORE DUP6 DUP1 DUP7 ADD SWAP2 ADD PUSH2 0xDB5 JUMP JUMPDEST PUSH1 0x1F ADD PUSH1 0x1F NOT AND ADD ADD SWAP1 JUMP JUMPDEST SWAP5 SWAP2 SWAP7 SWAP6 SWAP3 PUSH2 0xE17 PUSH1 0xA0 SWAP6 SWAP3 PUSH1 0xC0 DUP9 MSTORE PUSH1 0xC0 DUP9 ADD SWAP1 PUSH2 0xDD8 JUMP JUMPDEST SWAP8 PUSH1 0x20 DUP8 ADD MSTORE PUSH1 0x40 DUP7 ADD MSTORE ISZERO ISZERO PUSH1 0x60 DUP6 ADD MSTORE ISZERO ISZERO PUSH1 0x80 DUP5 ADD MSTORE ISZERO ISZERO SWAP2 ADD MSTORE JUMP JUMPDEST PUSH1 0xC0 SWAP1 PUSH1 0x3 NOT ADD SLT PUSH2 0x14E JUMPI PUSH1 0x4 CALLDATALOAD PUSH1 0x1 PUSH1 0x1 PUSH1 0xA0 SHL SUB DUP2 AND DUP2 SUB PUSH2 0x14E JUMPI SWAP1 PUSH1 0x24 CALLDATALOAD SWAP1 PUSH1 0x44 CALLDATALOAD SWAP1 PUSH1 0x64 CALLDATALOAD SWAP1 PUSH1 0x84 CALLDATALOAD DUP1 ISZERO ISZERO DUP2 SUB PUSH2 0x14E JUMPI SWAP1 PUSH1 0xA4 CALLDATALOAD DUP1 ISZERO ISZERO DUP2 SUB PUSH2 0x14E JUMPI SWAP1 JUMP JUMPDEST SWAP1 PUSH1 0x1 DUP3 DUP2 SHR SWAP3 AND DUP1 ISZERO PUSH2 0xEAF JUMPI JUMPDEST PUSH1 0x20 DUP4 LT EQ PUSH2 0xE99 JUMPI JUMP JUMPDEST PUSH4 0x4E487B71 PUSH1 0xE0 SHL PUSH1 0x0 MSTORE PUSH1 0x22 PUSH1 0x4 MSTORE PUSH1 0x24 PUSH1 0x0 REVERT JUMPDEST SWAP2 PUSH1 0x7F AND SWAP2 PUSH2 0xE8E JUMP JUMPDEST SWAP1 PUSH1 0x40 MLOAD SWAP2 DUP3 PUSH1 0x0 DUP3 SLOAD PUSH2 0xECC DUP2 PUSH2 0xE7F JUMP JUMPDEST SWAP1 DUP2 DUP5 MSTORE PUSH1 0x20 SWAP5 PUSH1 0x1 SWAP2 PUSH1 0x1 DUP2 AND SWAP1 DUP2 PUSH1 0x0 EQ PUSH2 0xF3C JUMPI POP PUSH1 0x1 EQ PUSH2 0xEFD JUMPI JUMPDEST POP POP POP PUSH2 0xEFB SWAP3 POP SUB DUP4 PUSH2 0xCCA JUMP JUMPDEST JUMP JUMPDEST PUSH1 0x0 SWAP1 DUP2 MSTORE DUP6 DUP2 KECCAK256 SWAP6 SWAP4 POP SWAP2 SWAP1 JUMPDEST DUP2 DUP4 LT PUSH2 0xF24 JUMPI POP POP PUSH2 0xEFB SWAP4 POP DUP3 ADD ADD CODESIZE DUP1 DUP1 PUSH2 0xEEC JUMP JUMPDEST DUP6 SLOAD DUP9 DUP5 ADD DUP6 ADD MSTORE SWAP5 DUP6 ADD SWAP5 DUP8 SWAP5 POP SWAP2 DUP4 ADD SWAP2 PUSH2 0xF0B JUMP JUMPDEST SWAP3 POP POP POP PUSH2 0xEFB SWAP5 SWAP3 POP PUSH1 0xFF NOT AND DUP3 DUP5 ADD MSTORE ISZERO ISZERO PUSH1 0x5 SHL DUP3 ADD ADD CODESIZE DUP1 DUP1 PUSH2 0xEEC JUMP JUMPDEST SWAP5 SWAP3 SWAP4 SWAP2 SWAP1 SWAP4 PUSH1 0x0 SWAP4 DUP6 DUP6 MSTORE PUSH1 0x20 SWAP1 PUSH1 0x1 DUP3 MSTORE PUSH1 0x40 SWAP5 DUP6 DUP8 KECCAK256 SWAP1 DUP7 MLOAD PUSH2 0xF83 DUP2 PUSH2 0xC92 JUMP JUMPDEST PUSH2 0xF8C DUP4 PUSH2 0xEB9 JUMP JUMPDEST DUP2 MSTORE PUSH1 0x1 DUP4 ADD SLOAD SWAP3 DUP6 DUP3 ADD SWAP4 DUP5 MSTORE PUSH1 0x3 PUSH1 0x2 DUP3 ADD SLOAD SWAP2 DUP11 DUP5 ADD SWAP3 DUP4 MSTORE ADD SLOAD SWAP4 PUSH1 0x60 DUP4 ADD SWAP3 PUSH1 0xFF DUP7 AND ISZERO ISZERO DUP5 MSTORE PUSH1 0xFF PUSH1 0x80 DUP3 ADD SWAP7 DUP2 DUP2 PUSH1 0x8 SHR AND ISZERO ISZERO DUP9 MSTORE PUSH1 0x10 SHR AND ISZERO SWAP1 PUSH1 0xA0 DUP3 ISZERO SWAP2 ADD MSTORE PUSH2 0x11AB JUMPI MLOAD DUP9 LT PUSH2 0x115C JUMPI MLOAD DUP7 LT PUSH2 0x110F JUMPI MLOAD ISZERO ISZERO SWAP1 DUP2 PUSH2 0x1106 JUMPI JUMPDEST POP PUSH2 0x10B0 JUMPI MLOAD ISZERO ISZERO SWAP1 DUP2 PUSH2 0x10A7 JUMPI JUMPDEST POP PUSH2 0x105D JUMPI DUP4 PUSH32 0x764ECBF951F6B486A679B3F6D5B677547068829E18B7E2892B59C9E718F08234 SWAP6 SWAP7 SWAP8 PUSH1 0x1 DUP1 PUSH1 0xA0 SHL SUB AND SWAP7 DUP8 DUP2 MSTORE PUSH1 0x3 DUP4 MSTORE DUP2 DUP2 KECCAK256 DUP10 DUP3 MSTORE DUP4 MSTORE KECCAK256 PUSH1 0x1 PUSH1 0xFF NOT DUP3 SLOAD AND OR SWAP1 SSTORE DUP4 MLOAD SWAP3 DUP4 MSTORE DUP3 ADD MSTORE LOG3 PUSH1 0x1 SWAP1 JUMP JUMPDEST SWAP4 SWAP6 SWAP1 POP PUSH1 0x60 SWAP2 POP PUSH19 0x10DC9959195B9D1A585B081C995C5D5A5C9959 PUSH1 0x6A SHL DUP4 PUSH1 0x13 PUSH1 0x0 DUP1 MLOAD PUSH1 0x20 PUSH2 0x1247 DUP4 CODECOPY DUP2 MLOAD SWAP2 MSTORE SWAP6 MLOAD SWAP7 DUP1 DUP9 MSTORE DUP8 ADD MSTORE DUP6 ADD MSTORE PUSH1 0x1 DUP1 PUSH1 0xA0 SHL SUB AND SWAP3 LOG3 SWAP1 JUMP JUMPDEST SWAP1 POP ISZERO CODESIZE PUSH2 0x1001 JUMP JUMPDEST POP POP SWAP4 SWAP6 SWAP1 POP PUSH1 0x60 SWAP2 POP PUSH32 0x48756D616E20766572696669636174696F6E2072657175697265640000000000 DUP4 PUSH1 0x1B PUSH1 0x0 DUP1 MLOAD PUSH1 0x20 PUSH2 0x1247 DUP4 CODECOPY DUP2 MLOAD SWAP2 MSTORE SWAP6 MLOAD SWAP7 DUP1 DUP9 MSTORE DUP8 ADD MSTORE DUP6 ADD MSTORE PUSH1 0x1 DUP1 PUSH1 0xA0 SHL SUB AND SWAP3 LOG3 SWAP1 JUMP JUMPDEST SWAP1 POP ISZERO CODESIZE PUSH2 0xFF2 JUMP JUMPDEST POP POP POP POP SWAP4 SWAP6 SWAP1 POP PUSH1 0x60 SWAP2 POP PUSH18 0x54727573742062616E6420746F6F206C6F77 PUSH1 0x70 SHL DUP4 PUSH1 0x12 PUSH1 0x0 DUP1 MLOAD PUSH1 0x20 PUSH2 0x1247 DUP4 CODECOPY DUP2 MLOAD SWAP2 MSTORE SWAP6 MLOAD SWAP7 DUP1 DUP9 MSTORE DUP8 ADD MSTORE DUP6 ADD MSTORE PUSH1 0x1 DUP1 PUSH1 0xA0 SHL SUB AND SWAP3 LOG3 SWAP1 JUMP JUMPDEST POP POP POP POP POP SWAP4 SWAP6 SWAP1 POP PUSH1 0x60 SWAP2 POP PUSH19 0x54727573742073636F726520746F6F206C6F77 PUSH1 0x68 SHL DUP4 PUSH1 0x13 PUSH1 0x0 DUP1 MLOAD PUSH1 0x20 PUSH2 0x1247 DUP4 CODECOPY DUP2 MLOAD SWAP2 MSTORE SWAP6 MLOAD SWAP7 DUP1 DUP9 MSTORE DUP8 ADD MSTORE DUP6 ADD MSTORE PUSH1 0x1 DUP1 PUSH1 0xA0 SHL SUB AND SWAP3 LOG3 SWAP1 JUMP JUMPDEST DUP10 MLOAD PUSH4 0x2F043FDF PUSH1 0xE2 SHL DUP2 MSTORE PUSH1 0x4 SWAP1 REVERT JUMPDEST PUSH8 0xFFFFFFFFFFFFFFFF DUP2 GT PUSH2 0x560 JUMPI PUSH1 0x5 SHL PUSH1 0x20 ADD SWAP1 JUMP JUMPDEST PUSH1 0x0 NOT DUP2 EQ PUSH2 0x11E3 JUMPI PUSH1 0x1 ADD SWAP1 JUMP JUMPDEST PUSH4 0x4E487B71 PUSH1 0xE0 SHL PUSH1 0x0 MSTORE PUSH1 0x11 PUSH1 0x4 MSTORE PUSH1 0x24 PUSH1 0x0 REVERT JUMPDEST DUP1 MLOAD ISZERO PUSH2 0xD89 JUMPI PUSH1 0x20 ADD SWAP1 JUMP JUMPDEST DUP1 MLOAD DUP3 LT ISZERO PUSH2 0xD89 JUMPI PUSH1 0x20 SWAP2 PUSH1 0x5 SHL ADD ADD SWAP1 JUMP JUMPDEST PUSH1 0x0 SLOAD PUSH1 0x1 PUSH1 0x1 PUSH1 0xA0 SHL SUB AND CALLER SUB PUSH2 0x122E JUMPI JUMP JUMPDEST PUSH1 0x40 MLOAD PUSH4 0x118CDAA7 PUSH1 0xE0 SHL DUP2 MSTORE CALLER PUSH1 0x4 DUP3 ADD MSTORE PUSH1 0x24 SWAP1 REVERT INVALID TIMESTAMP SWAP11 MSTORE8 PC LOG1 0x2A SHR PUSH14 0xB3723B143698C5F4A3D3822CD923 PUSH24 0x45D3FCB6FBB9D9156CA2646970667358221220C3C1CEDF2E 0xEE SWAP12 MOD 0xD3 0xEB 0xB7 PUSH1 0x27 MCOPY SWAP4 PUSH13 0x9D18D0CE3CA759E409D46DD668 PUSH5 0x2C7864736F PUSH13 0x63430008180033000000000000 "},"methodIdentifiers":{"approveUser(address,bytes32,uint256,uint256,bool,bool)":"d806a5f3","checkApproval(address,bytes32)":"6750e24d","createPolicy(bytes32,string,uint256,uint256,bool,bool)":"007b5561","deletePolicy(bytes32)":"6c67c8d4","evaluatePolicy(address,bytes32,uint256,uint256,bool,bool)":"e7b53afb","getPolicy(bytes32)":"a3f685f9","hashPolicy(string,address,uint256)":"ee7cea82","listPolicies()":"148e7b42","owner()":"8da5cb5b","policies(bytes32)":"ddbfd8ef","policyIds(uint256)":"2f500f6c","renounceOwnership()":"715018a6","transferOwnership(address)":"f2fde38b","updatePolicy(bytes32,uint256,uint256,bool,bool)":"1b3d680d","userPolicyApprovals(address,bytes32)":"96bda534"}}}}}