{"src/TrustVerifier.sol":{"TrustVerifier":{"abi":[{"inputs":[{"internalType":"address","name":"_owner","type":"address"}],"stateMutability":"nonpayable","type":"constructor"},{"inputs":[],"name":"ExpiredTrustScore","type":"error"},{"inputs":[{"internalType":"address","name":"user","type":"address"},{"internalType":"uint256","name":"required","type":"uint256"},{"internalType":"uint256","name":"actual","type":"uint256"}],"name":"InsufficientTrust","type":"error"},{"inputs":[],"name":"InvalidProof","type":"error"},{"inputs":[{"internalType":"address","name":"owner","type":"address"}],"name":"OwnableInvalidOwner","type":"error"},{"inputs":[{"internalType":"address","name":"account","type":"address"}],"name":"OwnableUnauthorizedAccount","type":"error"},{"inputs":[],"name":"PolicyNotFound","type":"error"},{"anonymous":false,"inputs":[{"indexed":true,"internalType":"address","name":"previousOwner","type":"address"},{"indexed":true,"internalType":"address","name":"newOwner","type":"address"}],"name":"OwnershipTransferred","type":"event"},{"anonymous":false,"inputs":[{"indexed":true,"internalType":"address","name":"user","type":"address"},{"indexed":false,"internalType":"uint256","name":"score","type":"uint256"},{"indexed":false,"internalType":"uint256","name":"band","type":"uint256"}],"name":"TrustScoreUpdated","type":"event"},{"inputs":[],"name":"BAND_THRESHOLD_1","outputs":[{"internalType":"uint256","name":"","type":"uint256"}],"stateMutability":"view","type":"function"},{"inputs":[],"name":"BAND_THRESHOLD_2","outputs":[{"internalType":"uint256","name":"","type":"uint256"}],"stateMutability":"view","type":"function"},{"inputs":[],"name":"BAND_THRESHOLD_3","outputs":[{"internalType":"uint256","name":"","type":"uint256"}],"stateMutability":"view","type":"function"},{"inputs":[],"name":"BAND_THRESHOLD_4","outputs":[{"internalType":"uint256","name":"","type":"uint256"}],"stateMutability":"view","type":"function"},{"inputs":[],"name":"SCORE_EXPIRY","outputs":[{"internalType":"uint256","name":"","type":"uint256"}],"stateMutability":"view","type":"function"},{"inputs":[],"name":"SCORE_MAX","outputs":[{"internalType":"uint256","name":"","type":"uint256"}],"stateMutability":"view","type":"function"},{"inputs":[{"internalType":"address","name":"user","type":"address"},{"internalType":"uint256","name":"minScore","type":"uint256"}],"name":"checkTrust","outputs":[{"internalType":"bool","name":"allowed","type":"bool"},{"internalType":"uint256","name":"actualScore","type":"uint256"},{"internalType":"uint256","name":"actualBand","type":"uint256"}],"stateMutability":"view","type":"function"},{"inputs":[{"internalType":"uint256","name":"score","type":"uint256"}],"name":"getBand","outputs":[{"internalType":"uint256","name":"band","type":"uint256"}],"stateMutability":"pure","type":"function"},{"inputs":[{"internalType":"address","name":"user","type":"address"}],"name":"getTrustScore","outputs":[{"internalType":"uint256","name":"score","type":"uint256"},{"internalType":"uint256","name":"band","type":"uint256"},{"internalType":"bool","name":"isValid","type":"bool"}],"stateMutability":"view","type":"function"},{"inputs":[{"internalType":"bytes32","name":"nullifier","type":"bytes32"}],"name":"isNullifierUsed","outputs":[{"internalType":"bool","name":"","type":"bool"}],"stateMutability":"view","type":"function"},{"inputs":[],"name":"owner","outputs":[{"internalType":"address","name":"","type":"address"}],"stateMutability":"view","type":"function"},{"inputs":[],"name":"renounceOwnership","outputs":[],"stateMutability":"nonpayable","type":"function"},{"inputs":[{"internalType":"address","name":"newOwner","type":"address"}],"name":"transferOwnership","outputs":[],"stateMutability":"nonpayable","type":"function"},{"inputs":[{"internalType":"address","name":"","type":"address"}],"name":"trustScores","outputs":[{"internalType":"uint256","name":"score","type":"uint256"},{"internalType":"uint256","name":"band","type":"uint256"},{"internalType":"uint256","name":"timestamp","type":"uint256"},{"internalType":"uint256","name":"expiry","type":"uint256"}],"stateMutability":"view","type":"function"},{"inputs":[{"internalType":"address","name":"user","type":"address"},{"internalType":"uint256","name":"score","type":"uint256"},{"internalType":"uint256","name":"band","type":"uint256"}],"name":"updateTrustScore","outputs":[],"stateMutability":"nonpayable","type":"function"},{"inputs":[{"internalType":"bytes32","name":"nullifier","type":"bytes32"}],"name":"useNullifier","outputs":[],"stateMutability":"nonpayable","type":"function"},{"inputs":[{"internalType":"bytes32","name":"","type":"bytes32"}],"name":"usedNullifiers","outputs":[{"internalType":"bool","name":"","type":"bool"}],"stateMutability":"view","type":"function"},{"inputs":[{"internalType":"address","name":"user","type":"address"},{"internalType":"uint256","name":"minBand","type":"uint256"}],"name":"verify","outputs":[{"internalType":"bool","name":"","type":"bool"}],"stateMutability":"view","type":"function"}],"evm":{"bytecode":{"linkReferences":{},"object":"6080346100bb57601f6108b538819003918201601f19168301916001600160401b038311848410176100c0578084926020946040528339810103126100bb57516001600160a01b0390818116908190036100bb5780156100a257600080546001600160a01b03198116831782556040519316907f8be0079c531659141344cd1fd0a4f28419497f9722a3daafe3b4186f6b6457e09080a36107de90816100d78239f35b604051631e4fbdf760e01b815260006004820152602490fd5b600080fd5b634e487b7160e01b600052604160045260246000fdfe6080604081815260048036101561001557600080fd5b600092833560e01c90816312df0fc4146106265750806314917ab61461060a5780631e50ee5f146105ee578063206137aa146105c257806322dc7b4c146105c257806327750ead1461058557806331295dfa1461056957806332e54c79146104e5578063480e1949146104be5780635e09eea11461044b5780636704fe9f146103a4578063715018a61461034757806371d75a871461032b5780637fe524d11461030d5780638a49a3cc146101ba5780638da5cb5b14610192578063af2b5f7b146101725763f2fde38b146100e957600080fd5b3461016e57602036600319011261016e5761010261067c565b9061010b61077c565b6001600160a01b0391821692831561015857505082546001600160a01b0319811683178455167f8be0079c531659141344cd1fd0a4f28419497f9722a3daafe3b4186f6b6457e08380a380f35b51631e4fbdf760e01b8152908101849052602490fd5b8280fd5b50503461018e578160031936011261018e576020905160508152f35b5080fd5b50503461018e578160031936011261018e57905490516001600160a01b039091168152602090f35b5091903461018e57606036600319011261018e576101d661067c565b906024356044356101e561077c565b606482116102d9576001811015806102ce575b1561029c57620151804201804211610289577f15dd57e0cde9af9083c846eb39c9da382e907c0036818e4a163ecd167e5f3276949596506003610239610697565b918483526020830197848952868401904282526060850192835260018060a01b031698898b526001602052878b20945185555160018501555160028401555191015582519182526020820152a280f35b634e487b7160e01b865260118752602486fd5b825162461bcd60e51b8152602081880152600c60248201526b125b9d985b1a590818985b9960a21b6044820152606490fd5b5060058111156101f8565b825162461bcd60e51b8152602081880152600e60248201526d0a6c6dee4ca40e8dede40d0d2ced60931b6044820152606490fd5b50503461018e578160031936011261018e5760209051620151808152f35b50503461018e578160031936011261018e5760209051603c8152f35b83346103a157806003193601126103a15761036061077c565b80546001600160a01b03198116825581906001600160a01b03167f8be0079c531659141344cd1fd0a4f28419497f9722a3daafe3b4186f6b6457e08280a380f35b80fd5b5082346103a157826003193601126103a1576103be61067c565b6001600160a01b03168082526001602052908390206024359060606103e1610697565b8254815260036001840154936020830194855260028101548984015201549182910152421161043b57519181831061041d576020855160018152f35b6064945193637388d66760e11b855284015260248301526044820152fd5b845163112818c360e21b81528490fd5b50503461018e57602036600319011261018e5760609181906001600160a01b0361047361067c565b1681526001602052209082610486610697565b928054938481526003600183015492836020840152600281015486840152015492839101528251938452602084015242111590820152f35b5091346103a15760203660031901126103a157506104de6020923561073d565b9051908152f35b503461016e57602036600319011261016e5780359061050261077c565b818452600260205260ff838520541661052d5750825260026020528120805460ff1916600117905580f35b606490602084519162461bcd60e51b83528201526016602482015275139d5b1b1a599a595c88185b1c9958591e481d5cd95960521b6044820152fd5b50503461018e578160031936011261018e576020905160148152f35b50503461018e578060031936011261018e576060906105ae6105a561067c565b602435906106cd565b919290815193151584526020840152820152f35b503461016e57602036600319011261016e578160209360ff923581526002855220541690519015158152f35b50503461018e578160031936011261018e576020905160648152f35b50503461018e578160031936011261018e576020905160288152f35b8490843461016e57602036600319011261016e5760809281906001600160a01b0361064f61067c565b16815260016020522080549160018201546003600284015493015493855260208501528301526060820152f35b600435906001600160a01b038216820361069257565b600080fd5b604051906080820182811067ffffffffffffffff8211176106b757604052565b634e487b7160e01b600052604160045260246000fd5b6001600160a01b0316600090815260016020526040902090916106ee610697565b926060835494858152600360018601549586602084015260028101546040840152015491829101524211908115610733575b5061072c576001929190565b6000929190565b9050831038610720565b605081101561077657603c81101561077057602881101561076a576014111561076557600090565b600190565b50600290565b50600390565b50600490565b6000546001600160a01b0316330361079057565b60405163118cdaa760e01b8152336004820152602490fdfea264697066735822122077d6e9e51d6fc93ec48d717e2e69d76a3aee8965e8354ed95129c35098d068e964736f6c63430008180033","opcodes":"PUSH1 0x80 CALLVALUE PUSH2 0xBB JUMPI PUSH1 0x1F PUSH2 0x8B5 CODESIZE DUP2 SWAP1 SUB SWAP2 DUP3 ADD PUSH1 0x1F NOT AND DUP4 ADD SWAP2 PUSH1 0x1 PUSH1 0x1 PUSH1 0x40 SHL SUB DUP4 GT DUP5 DUP5 LT OR PUSH2 0xC0 JUMPI DUP1 DUP5 SWAP3 PUSH1 0x20 SWAP5 PUSH1 0x40 MSTORE DUP4 CODECOPY DUP2 ADD SUB SLT PUSH2 0xBB JUMPI MLOAD PUSH1 0x1 PUSH1 0x1 PUSH1 0xA0 SHL SUB SWAP1 DUP2 DUP2 AND SWAP1 DUP2 SWAP1 SUB PUSH2 0xBB JUMPI DUP1 ISZERO PUSH2 0xA2 JUMPI PUSH1 0x0 DUP1 SLOAD PUSH1 0x1 PUSH1 0x1 PUSH1 0xA0 SHL SUB NOT DUP2 AND DUP4 OR DUP3 SSTORE PUSH1 0x40 MLOAD SWAP4 AND SWAP1 PUSH32 0x8BE0079C531659141344CD1FD0A4F28419497F9722A3DAAFE3B4186F6B6457E0 SWAP1 DUP1 LOG3 PUSH2 0x7DE SWAP1 DUP2 PUSH2 0xD7 DUP3 CODECOPY RETURN JUMPDEST PUSH1 0x40 MLOAD PUSH4 0x1E4FBDF7 PUSH1 0xE0 SHL DUP2 MSTORE PUSH1 0x0 PUSH1 0x4 DUP3 ADD MSTORE PUSH1 0x24 SWAP1 REVERT JUMPDEST PUSH1 0x0 DUP1 REVERT JUMPDEST PUSH4 0x4E487B71 PUSH1 0xE0 SHL PUSH1 0x0 MSTORE PUSH1 0x41 PUSH1 0x4 MSTORE PUSH1 0x24 PUSH1 0x0 REVERT INVALID PUSH1 0x80 PUSH1 0x40 DUP2 DUP2 MSTORE PUSH1 0x4 DUP1 CALLDATASIZE LT ISZERO PUSH2 0x15 JUMPI PUSH1 0x0 DUP1 REVERT JUMPDEST PUSH1 0x0 SWAP3 DUP4 CALLDATALOAD PUSH1 0xE0 SHR SWAP1 DUP2 PUSH4 0x12DF0FC4 EQ PUSH2 0x626 JUMPI POP DUP1 PUSH4 0x14917AB6 EQ PUSH2 0x60A JUMPI DUP1 PUSH4 0x1E50EE5F EQ PUSH2 0x5EE JUMPI DUP1 PUSH4 0x206137AA EQ PUSH2 0x5C2 JUMPI DUP1 PUSH4 0x22DC7B4C EQ PUSH2 0x5C2 JUMPI DUP1 PUSH4 0x27750EAD EQ PUSH2 0x585 JUMPI DUP1 PUSH4 0x31295DFA EQ PUSH2 0x569 JUMPI DUP1 PUSH4 0x32E54C79 EQ PUSH2 0x4E5 JUMPI DUP1 PUSH4 0x480E1949 EQ PUSH2 0x4BE JUMPI DUP1 PUSH4 0x5E09EEA1 EQ PUSH2 0x44B JUMPI DUP1 PUSH4 0x6704FE9F EQ PUSH2 0x3A4 JUMPI DUP1 PUSH4 0x715018A6 EQ PUSH2 0x347 JUMPI DUP1 PUSH4 0x71D75A87 EQ PUSH2 0x32B JUMPI DUP1 PUSH4 0x7FE524D1 EQ PUSH2 0x30D JUMPI DUP1 PUSH4 0x8A49A3CC EQ PUSH2 0x1BA JUMPI DUP1 PUSH4 0x8DA5CB5B EQ PUSH2 0x192 JUMPI DUP1 PUSH4 0xAF2B5F7B EQ PUSH2 0x172 JUMPI PUSH4 0xF2FDE38B EQ PUSH2 0xE9 JUMPI PUSH1 0x0 DUP1 REVERT JUMPDEST CALLVALUE PUSH2 0x16E JUMPI PUSH1 0x20 CALLDATASIZE PUSH1 0x3 NOT ADD SLT PUSH2 0x16E JUMPI PUSH2 0x102 PUSH2 0x67C JUMP JUMPDEST SWAP1 PUSH2 0x10B PUSH2 0x77C JUMP JUMPDEST PUSH1 0x1 PUSH1 0x1 PUSH1 0xA0 SHL SUB SWAP2 DUP3 AND SWAP3 DUP4 ISZERO PUSH2 0x158 JUMPI POP POP DUP3 SLOAD PUSH1 0x1 PUSH1 0x1 PUSH1 0xA0 SHL SUB NOT DUP2 AND DUP4 OR DUP5 SSTORE AND PUSH32 0x8BE0079C531659141344CD1FD0A4F28419497F9722A3DAAFE3B4186F6B6457E0 DUP4 DUP1 LOG3 DUP1 RETURN JUMPDEST MLOAD PUSH4 0x1E4FBDF7 PUSH1 0xE0 SHL DUP2 MSTORE SWAP1 DUP2 ADD DUP5 SWAP1 MSTORE PUSH1 0x24 SWAP1 REVERT JUMPDEST DUP3 DUP1 REVERT JUMPDEST POP POP CALLVALUE PUSH2 0x18E JUMPI DUP2 PUSH1 0x3 NOT CALLDATASIZE ADD SLT PUSH2 0x18E JUMPI PUSH1 0x20 SWAP1 MLOAD PUSH1 0x50 DUP2 MSTORE RETURN JUMPDEST POP DUP1 REVERT JUMPDEST POP POP CALLVALUE PUSH2 0x18E JUMPI DUP2 PUSH1 0x3 NOT CALLDATASIZE ADD SLT PUSH2 0x18E JUMPI SWAP1 SLOAD SWAP1 MLOAD PUSH1 0x1 PUSH1 0x1 PUSH1 0xA0 SHL SUB SWAP1 SWAP2 AND DUP2 MSTORE PUSH1 0x20 SWAP1 RETURN JUMPDEST POP SWAP2 SWAP1 CALLVALUE PUSH2 0x18E JUMPI PUSH1 0x60 CALLDATASIZE PUSH1 0x3 NOT ADD SLT PUSH2 0x18E JUMPI PUSH2 0x1D6 PUSH2 0x67C JUMP JUMPDEST SWAP1 PUSH1 0x24 CALLDATALOAD PUSH1 0x44 CALLDATALOAD PUSH2 0x1E5 PUSH2 0x77C JUMP JUMPDEST PUSH1 0x64 DUP3 GT PUSH2 0x2D9 JUMPI PUSH1 0x1 DUP2 LT ISZERO DUP1 PUSH2 0x2CE JUMPI JUMPDEST ISZERO PUSH2 0x29C JUMPI PUSH3 0x15180 TIMESTAMP ADD DUP1 TIMESTAMP GT PUSH2 0x289 JUMPI PUSH32 0x15DD57E0CDE9AF9083C846EB39C9DA382E907C0036818E4A163ECD167E5F3276 SWAP5 SWAP6 SWAP7 POP PUSH1 0x3 PUSH2 0x239 PUSH2 0x697 JUMP JUMPDEST SWAP2 DUP5 DUP4 MSTORE PUSH1 0x20 DUP4 ADD SWAP8 DUP5 DUP10 MSTORE DUP7 DUP5 ADD SWAP1 TIMESTAMP DUP3 MSTORE PUSH1 0x60 DUP6 ADD SWAP3 DUP4 MSTORE PUSH1 0x1 DUP1 PUSH1 0xA0 SHL SUB AND SWAP9 DUP10 DUP12 MSTORE PUSH1 0x1 PUSH1 0x20 MSTORE DUP8 DUP12 KECCAK256 SWAP5 MLOAD DUP6 SSTORE MLOAD PUSH1 0x1 DUP6 ADD SSTORE MLOAD PUSH1 0x2 DUP5 ADD SSTORE MLOAD SWAP2 ADD SSTORE DUP3 MLOAD SWAP2 DUP3 MSTORE PUSH1 0x20 DUP3 ADD MSTORE LOG2 DUP1 RETURN JUMPDEST PUSH4 0x4E487B71 PUSH1 0xE0 SHL DUP7 MSTORE PUSH1 0x11 DUP8 MSTORE PUSH1 0x24 DUP7 REVERT JUMPDEST DUP3 MLOAD PUSH3 0x461BCD PUSH1 0xE5 SHL DUP2 MSTORE PUSH1 0x20 DUP2 DUP9 ADD MSTORE PUSH1 0xC PUSH1 0x24 DUP3 ADD MSTORE PUSH12 0x125B9D985B1A590818985B99 PUSH1 0xA2 SHL PUSH1 0x44 DUP3 ADD MSTORE PUSH1 0x64 SWAP1 REVERT JUMPDEST POP PUSH1 0x5 DUP2 GT ISZERO PUSH2 0x1F8 JUMP JUMPDEST DUP3 MLOAD PUSH3 0x461BCD PUSH1 0xE5 SHL DUP2 MSTORE PUSH1 0x20 DUP2 DUP9 ADD MSTORE PUSH1 0xE PUSH1 0x24 DUP3 ADD MSTORE PUSH14 0xA6C6DEE4CA40E8DEDE40D0D2CED PUSH1 0x93 SHL PUSH1 0x44 DUP3 ADD MSTORE PUSH1 0x64 SWAP1 REVERT JUMPDEST POP POP CALLVALUE PUSH2 0x18E JUMPI DUP2 PUSH1 0x3 NOT CALLDATASIZE ADD SLT PUSH2 0x18E JUMPI PUSH1 0x20 SWAP1 MLOAD PUSH3 0x15180 DUP2 MSTORE RETURN JUMPDEST POP POP CALLVALUE PUSH2 0x18E JUMPI DUP2 PUSH1 0x3 NOT CALLDATASIZE ADD SLT PUSH2 0x18E JUMPI PUSH1 0x20 SWAP1 MLOAD PUSH1 0x3C DUP2 MSTORE RETURN JUMPDEST DUP4 CALLVALUE PUSH2 0x3A1 JUMPI DUP1 PUSH1 0x3 NOT CALLDATASIZE ADD SLT PUSH2 0x3A1 JUMPI PUSH2 0x360 PUSH2 0x77C JUMP JUMPDEST DUP1 SLOAD PUSH1 0x1 PUSH1 0x1 PUSH1 0xA0 SHL SUB NOT DUP2 AND DUP3 SSTORE DUP2 SWAP1 PUSH1 0x1 PUSH1 0x1 PUSH1 0xA0 SHL SUB AND PUSH32 0x8BE0079C531659141344CD1FD0A4F28419497F9722A3DAAFE3B4186F6B6457E0 DUP3 DUP1 LOG3 DUP1 RETURN JUMPDEST DUP1 REVERT JUMPDEST POP DUP3 CALLVALUE PUSH2 0x3A1 JUMPI DUP3 PUSH1 0x3 NOT CALLDATASIZE ADD SLT PUSH2 0x3A1 JUMPI PUSH2 0x3BE PUSH2 0x67C JUMP JUMPDEST PUSH1 0x1 PUSH1 0x1 PUSH1 0xA0 SHL SUB AND DUP1 DUP3 MSTORE PUSH1 0x1 PUSH1 0x20 MSTORE SWAP1 DUP4 SWAP1 KECCAK256 PUSH1 0x24 CALLDATALOAD SWAP1 PUSH1 0x60 PUSH2 0x3E1 PUSH2 0x697 JUMP JUMPDEST DUP3 SLOAD DUP2 MSTORE PUSH1 0x3 PUSH1 0x1 DUP5 ADD SLOAD SWAP4 PUSH1 0x20 DUP4 ADD SWAP5 DUP6 MSTORE PUSH1 0x2 DUP2 ADD SLOAD DUP10 DUP5 ADD MSTORE ADD SLOAD SWAP2 DUP3 SWAP2 ADD MSTORE TIMESTAMP GT PUSH2 0x43B JUMPI MLOAD SWAP2 DUP2 DUP4 LT PUSH2 0x41D JUMPI PUSH1 0x20 DUP6 MLOAD PUSH1 0x1 DUP2 MSTORE RETURN JUMPDEST PUSH1 0x64 SWAP5 MLOAD SWAP4 PUSH4 0x7388D667 PUSH1 0xE1 SHL DUP6 MSTORE DUP5 ADD MSTORE PUSH1 0x24 DUP4 ADD MSTORE PUSH1 0x44 DUP3 ADD MSTORE REVERT JUMPDEST DUP5 MLOAD PUSH4 0x112818C3 PUSH1 0xE2 SHL DUP2 MSTORE DUP5 SWAP1 REVERT JUMPDEST POP POP CALLVALUE PUSH2 0x18E JUMPI PUSH1 0x20 CALLDATASIZE PUSH1 0x3 NOT ADD SLT PUSH2 0x18E JUMPI PUSH1 0x60 SWAP2 DUP2 SWAP1 PUSH1 0x1 PUSH1 0x1 PUSH1 0xA0 SHL SUB PUSH2 0x473 PUSH2 0x67C JUMP JUMPDEST AND DUP2 MSTORE PUSH1 0x1 PUSH1 0x20 MSTORE KECCAK256 SWAP1 DUP3 PUSH2 0x486 PUSH2 0x697 JUMP JUMPDEST SWAP3 DUP1 SLOAD SWAP4 DUP5 DUP2 MSTORE PUSH1 0x3 PUSH1 0x1 DUP4 ADD SLOAD SWAP3 DUP4 PUSH1 0x20 DUP5 ADD MSTORE PUSH1 0x2 DUP2 ADD SLOAD DUP7 DUP5 ADD MSTORE ADD SLOAD SWAP3 DUP4 SWAP2 ADD MSTORE DUP3 MLOAD SWAP4 DUP5 MSTORE PUSH1 0x20 DUP5 ADD MSTORE TIMESTAMP GT ISZERO SWAP1 DUP3 ADD MSTORE RETURN JUMPDEST POP SWAP2 CALLVALUE PUSH2 0x3A1 JUMPI PUSH1 0x20 CALLDATASIZE PUSH1 0x3 NOT ADD SLT PUSH2 0x3A1 JUMPI POP PUSH2 0x4DE PUSH1 0x20 SWAP3 CALLDATALOAD PUSH2 0x73D JUMP JUMPDEST SWAP1 MLOAD SWAP1 DUP2 MSTORE RETURN JUMPDEST POP CALLVALUE PUSH2 0x16E JUMPI PUSH1 0x20 CALLDATASIZE PUSH1 0x3 NOT ADD SLT PUSH2 0x16E JUMPI DUP1 CALLDATALOAD SWAP1 PUSH2 0x502 PUSH2 0x77C JUMP JUMPDEST DUP2 DUP5 MSTORE PUSH1 0x2 PUSH1 0x20 MSTORE PUSH1 0xFF DUP4 DUP6 KECCAK256 SLOAD AND PUSH2 0x52D JUMPI POP DUP3 MSTORE PUSH1 0x2 PUSH1 0x20 MSTORE DUP2 KECCAK256 DUP1 SLOAD PUSH1 0xFF NOT AND PUSH1 0x1 OR SWAP1 SSTORE DUP1 RETURN JUMPDEST PUSH1 0x64 SWAP1 PUSH1 0x20 DUP5 MLOAD SWAP2 PUSH3 0x461BCD PUSH1 0xE5 SHL DUP4 MSTORE DUP3 ADD MSTORE PUSH1 0x16 PUSH1 0x24 DUP3 ADD MSTORE PUSH22 0x139D5B1B1A599A595C88185B1C9958591E481D5CD959 PUSH1 0x52 SHL PUSH1 0x44 DUP3 ADD MSTORE REVERT JUMPDEST POP POP CALLVALUE PUSH2 0x18E JUMPI DUP2 PUSH1 0x3 NOT CALLDATASIZE ADD SLT PUSH2 0x18E JUMPI PUSH1 0x20 SWAP1 MLOAD PUSH1 0x14 DUP2 MSTORE RETURN JUMPDEST POP POP CALLVALUE PUSH2 0x18E JUMPI DUP1 PUSH1 0x3 NOT CALLDATASIZE ADD SLT PUSH2 0x18E JUMPI PUSH1 0x60 SWAP1 PUSH2 0x5AE PUSH2 0x5A5 PUSH2 0x67C JUMP JUMPDEST PUSH1 0x24 CALLDATALOAD SWAP1 PUSH2 0x6CD JUMP JUMPDEST SWAP2 SWAP3 SWAP1 DUP2 MLOAD SWAP4 ISZERO ISZERO DUP5 MSTORE PUSH1 0x20 DUP5 ADD MSTORE DUP3 ADD MSTORE RETURN JUMPDEST POP CALLVALUE PUSH2 0x16E JUMPI PUSH1 0x20 CALLDATASIZE PUSH1 0x3 NOT ADD SLT PUSH2 0x16E JUMPI DUP2 PUSH1 0x20 SWAP4 PUSH1 0xFF SWAP3 CALLDATALOAD DUP2 MSTORE PUSH1 0x2 DUP6 MSTORE KECCAK256 SLOAD AND SWAP1 MLOAD SWAP1 ISZERO ISZERO DUP2 MSTORE RETURN JUMPDEST POP POP CALLVALUE PUSH2 0x18E JUMPI DUP2 PUSH1 0x3 NOT CALLDATASIZE ADD SLT PUSH2 0x18E JUMPI PUSH1 0x20 SWAP1 MLOAD PUSH1 0x64 DUP2 MSTORE RETURN JUMPDEST POP POP CALLVALUE PUSH2 0x18E JUMPI DUP2 PUSH1 0x3 NOT CALLDATASIZE ADD SLT PUSH2 0x18E JUMPI PUSH1 0x20 SWAP1 MLOAD PUSH1 0x28 DUP2 MSTORE RETURN JUMPDEST DUP5 SWAP1 DUP5 CALLVALUE PUSH2 0x16E JUMPI PUSH1 0x20 CALLDATASIZE PUSH1 0x3 NOT ADD SLT PUSH2 0x16E JUMPI PUSH1 0x80 SWAP3 DUP2 SWAP1 PUSH1 0x1 PUSH1 0x1 PUSH1 0xA0 SHL SUB PUSH2 0x64F PUSH2 0x67C JUMP JUMPDEST AND DUP2 MSTORE PUSH1 0x1 PUSH1 0x20 MSTORE KECCAK256 DUP1 SLOAD SWAP2 PUSH1 0x1 DUP3 ADD SLOAD PUSH1 0x3 PUSH1 0x2 DUP5 ADD SLOAD SWAP4 ADD SLOAD SWAP4 DUP6 MSTORE PUSH1 0x20 DUP6 ADD MSTORE DUP4 ADD MSTORE PUSH1 0x60 DUP3 ADD MSTORE RETURN JUMPDEST PUSH1 0x4 CALLDATALOAD SWAP1 PUSH1 0x1 PUSH1 0x1 PUSH1 0xA0 SHL SUB DUP3 AND DUP3 SUB PUSH2 0x692 JUMPI JUMP JUMPDEST PUSH1 0x0 DUP1 REVERT JUMPDEST PUSH1 0x40 MLOAD SWAP1 PUSH1 0x80 DUP3 ADD DUP3 DUP2 LT PUSH8 0xFFFFFFFFFFFFFFFF DUP3 GT OR PUSH2 0x6B7 JUMPI PUSH1 0x40 MSTORE JUMP JUMPDEST PUSH4 0x4E487B71 PUSH1 0xE0 SHL PUSH1 0x0 MSTORE PUSH1 0x41 PUSH1 0x4 MSTORE PUSH1 0x24 PUSH1 0x0 REVERT JUMPDEST PUSH1 0x1 PUSH1 0x1 PUSH1 0xA0 SHL SUB AND PUSH1 0x0 SWAP1 DUP2 MSTORE PUSH1 0x1 PUSH1 0x20 MSTORE PUSH1 0x40 SWAP1 KECCAK256 SWAP1 SWAP2 PUSH2 0x6EE PUSH2 0x697 JUMP JUMPDEST SWAP3 PUSH1 0x60 DUP4 SLOAD SWAP5 DUP6 DUP2 MSTORE PUSH1 0x3 PUSH1 0x1 DUP7 ADD SLOAD SWAP6 DUP7 PUSH1 0x20 DUP5 ADD MSTORE PUSH1 0x2 DUP2 ADD SLOAD PUSH1 0x40 DUP5 ADD MSTORE ADD SLOAD SWAP2 DUP3 SWAP2 ADD MSTORE TIMESTAMP GT SWAP1 DUP2 ISZERO PUSH2 0x733 JUMPI JUMPDEST POP PUSH2 0x72C JUMPI PUSH1 0x1 SWAP3 SWAP2 SWAP1 JUMP JUMPDEST PUSH1 0x0 SWAP3 SWAP2 SWAP1 JUMP JUMPDEST SWAP1 POP DUP4 LT CODESIZE PUSH2 0x720 JUMP JUMPDEST PUSH1 0x50 DUP2 LT ISZERO PUSH2 0x776 JUMPI PUSH1 0x3C DUP2 LT ISZERO PUSH2 0x770 JUMPI PUSH1 0x28 DUP2 LT ISZERO PUSH2 0x76A JUMPI PUSH1 0x14 GT ISZERO PUSH2 0x765 JUMPI PUSH1 0x0 SWAP1 JUMP JUMPDEST PUSH1 0x1 SWAP1 JUMP JUMPDEST POP PUSH1 0x2 SWAP1 JUMP JUMPDEST POP PUSH1 0x3 SWAP1 JUMP JUMPDEST POP PUSH1 0x4 SWAP1 JUMP JUMPDEST PUSH1 0x0 SLOAD PUSH1 0x1 PUSH1 0x1 PUSH1 0xA0 SHL SUB AND CALLER SUB PUSH2 0x790 JUMPI JUMP JUMPDEST PUSH1 0x40 MLOAD PUSH4 0x118CDAA7 PUSH1 0xE0 SHL DUP2 MSTORE CALLER PUSH1 0x4 DUP3 ADD MSTORE PUSH1 0x24 SWAP1 REVERT INVALID LOG2 PUSH5 0x6970667358 0x22 SLT KECCAK256 PUSH24 0xD6E9E51D6FC93EC48D717E2E69D76A3AEE8965E8354ED951 0x29 0xC3 POP SWAP9 0xD0 PUSH9 0xE964736F6C63430008 XOR STOP CALLER "},"methodIdentifiers":{"BAND_THRESHOLD_1()":"31295dfa","BAND_THRESHOLD_2()":"14917ab6","BAND_THRESHOLD_3()":"71d75a87","BAND_THRESHOLD_4()":"af2b5f7b","SCORE_EXPIRY()":"7fe524d1","SCORE_MAX()":"1e50ee5f","checkTrust(address,uint256)":"27750ead","getBand(uint256)":"480e1949","getTrustScore(address)":"5e09eea1","isNullifierUsed(bytes32)":"22dc7b4c","owner()":"8da5cb5b","renounceOwnership()":"715018a6","transferOwnership(address)":"f2fde38b","trustScores(address)":"12df0fc4","updateTrustScore(address,uint256,uint256)":"8a49a3cc","useNullifier(bytes32)":"32e54c79","usedNullifiers(bytes32)":"206137aa","verify(address,uint256)":"6704fe9f"}}}}}