{
  "_format": "hh-sol-artifact-1",
  "contractName": "TrustPolicy",
  "sourceName": "src/TrustPolicy.sol",
  "abi": [
    {
      "inputs": [
        {
          "internalType": "address",
          "name": "_owner",
          "type": "address"
        }
      ],
      "stateMutability": "nonpayable",
      "type": "constructor"
    },
    {
      "inputs": [],
      "name": "InvalidPolicyConfig",
      "type": "error"
    },
    {
      "inputs": [
        {
          "internalType": "address",
          "name": "owner",
          "type": "address"
        }
      ],
      "name": "OwnableInvalidOwner",
      "type": "error"
    },
    {
      "inputs": [
        {
          "internalType": "address",
          "name": "account",
          "type": "address"
        }
      ],
      "name": "OwnableUnauthorizedAccount",
      "type": "error"
    },
    {
      "inputs": [],
      "name": "PolicyAlreadyExists",
      "type": "error"
    },
    {
      "inputs": [],
      "name": "PolicyDoesNotExist",
      "type": "error"
    },
    {
      "inputs": [
        {
          "internalType": "address",
          "name": "user",
          "type": "address"
        },
        {
          "internalType": "string",
          "name": "reason",
          "type": "string"
        }
      ],
      "name": "UserNotEligible",
      "type": "error"
    },
    {
      "anonymous": false,
      "inputs": [
        {
          "indexed": true,
          "internalType": "address",
          "name": "previousOwner",
          "type": "address"
        },
        {
          "indexed": true,
          "internalType": "address",
          "name": "newOwner",
          "type": "address"
        }
      ],
      "name": "OwnershipTransferred",
      "type": "event"
    },
    {
      "anonymous": false,
      "inputs": [
        {
          "indexed": true,
          "internalType": "bytes32",
          "name": "policyId",
          "type": "bytes32"
        },
        {
          "indexed": false,
          "internalType": "string",
          "name": "name",
          "type": "string"
        },
        {
          "indexed": false,
          "internalType": "uint256",
          "name": "minScore",
          "type": "uint256"
        },
        {
          "indexed": false,
          "internalType": "uint256",
          "name": "minBand",
          "type": "uint256"
        }
      ],
      "name": "PolicyCreated",
      "type": "event"
    },
    {
      "anonymous": false,
      "inputs": [
        {
          "indexed": true,
          "internalType": "bytes32",
          "name": "policyId",
          "type": "bytes32"
        }
      ],
      "name": "PolicyDeleted",
      "type": "event"
    },
    {
      "anonymous": false,
      "inputs": [
        {
          "indexed": true,
          "internalType": "bytes32",
          "name": "policyId",
          "type": "bytes32"
        }
      ],
      "name": "PolicyUpdated",
      "type": "event"
    },
    {
      "anonymous": false,
      "inputs": [
        {
          "indexed": true,
          "internalType": "address",
          "name": "user",
          "type": "address"
        },
        {
          "indexed": true,
          "internalType": "bytes32",
          "name": "policyId",
          "type": "bytes32"
        },
        {
          "indexed": false,
          "internalType": "uint256",
          "name": "score",
          "type": "uint256"
        },
        {
          "indexed": false,
          "internalType": "uint256",
          "name": "band",
          "type": "uint256"
        }
      ],
      "name": "UserApproved",
      "type": "event"
    },
    {
      "anonymous": false,
      "inputs": [
        {
          "indexed": true,
          "internalType": "address",
          "name": "user",
          "type": "address"
        },
        {
          "indexed": true,
          "internalType": "bytes32",
          "name": "policyId",
          "type": "bytes32"
        },
        {
          "indexed": false,
          "internalType": "string",
          "name": "reason",
          "type": "string"
        }
      ],
      "name": "UserDenied",
      "type": "event"
    },
    {
      "inputs": [
        {
          "internalType": "address",
          "name": "user",
          "type": "address"
        },
        {
          "internalType": "bytes32",
          "name": "policyId",
          "type": "bytes32"
        },
        {
          "internalType": "uint256",
          "name": "userTrustScore",
          "type": "uint256"
        },
        {
          "internalType": "uint256",
          "name": "userBand",
          "type": "uint256"
        },
        {
          "internalType": "bool",
          "name": "isHuman",
          "type": "bool"
        },
        {
          "internalType": "bool",
          "name": "hasCredential",
          "type": "bool"
        }
      ],
      "name": "approveUser",
      "outputs": [
        {
          "internalType": "bool",
          "name": "allowed",
          "type": "bool"
        }
      ],
      "stateMutability": "nonpayable",
      "type": "function"
    },
    {
      "inputs": [
        {
          "internalType": "address",
          "name": "user",
          "type": "address"
        },
        {
          "internalType": "bytes32",
          "name": "policyId",
          "type": "bytes32"
        }
      ],
      "name": "checkApproval",
      "outputs": [
        {
          "internalType": "bool",
          "name": "",
          "type": "bool"
        }
      ],
      "stateMutability": "view",
      "type": "function"
    },
    {
      "inputs": [
        {
          "internalType": "bytes32",
          "name": "policyId",
          "type": "bytes32"
        },
        {
          "internalType": "string",
          "name": "name",
          "type": "string"
        },
        {
          "internalType": "uint256",
          "name": "_minTrustScore",
          "type": "uint256"
        },
        {
          "internalType": "uint256",
          "name": "_minBand",
          "type": "uint256"
        },
        {
          "internalType": "bool",
          "name": "_requireHuman",
          "type": "bool"
        },
        {
          "internalType": "bool",
          "name": "_requireCredential",
          "type": "bool"
        }
      ],
      "name": "createPolicy",
      "outputs": [],
      "stateMutability": "nonpayable",
      "type": "function"
    },
    {
      "inputs": [
        {
          "internalType": "bytes32",
          "name": "policyId",
          "type": "bytes32"
        }
      ],
      "name": "deletePolicy",
      "outputs": [],
      "stateMutability": "nonpayable",
      "type": "function"
    },
    {
      "inputs": [
        {
          "internalType": "address",
          "name": "user",
          "type": "address"
        },
        {
          "internalType": "bytes32",
          "name": "policyId",
          "type": "bytes32"
        },
        {
          "internalType": "uint256",
          "name": "userTrustScore",
          "type": "uint256"
        },
        {
          "internalType": "uint256",
          "name": "userBand",
          "type": "uint256"
        },
        {
          "internalType": "bool",
          "name": "isHuman",
          "type": "bool"
        },
        {
          "internalType": "bool",
          "name": "hasCredential",
          "type": "bool"
        }
      ],
      "name": "evaluatePolicy",
      "outputs": [
        {
          "internalType": "bool",
          "name": "allowed",
          "type": "bool"
        },
        {
          "internalType": "string[]",
          "name": "reasons",
          "type": "string[]"
        }
      ],
      "stateMutability": "view",
      "type": "function"
    },
    {
      "inputs": [
        {
          "internalType": "bytes32",
          "name": "policyId",
          "type": "bytes32"
        }
      ],
      "name": "getPolicy",
      "outputs": [
        {
          "internalType": "string",
          "name": "name",
          "type": "string"
        },
        {
          "internalType": "uint256",
          "name": "minTrustScore",
          "type": "uint256"
        },
        {
          "internalType": "uint256",
          "name": "minBand",
          "type": "uint256"
        },
        {
          "internalType": "bool",
          "name": "requireHuman",
          "type": "bool"
        },
        {
          "internalType": "bool",
          "name": "requireCredential",
          "type": "bool"
        },
        {
          "internalType": "bool",
          "name": "active",
          "type": "bool"
        }
      ],
      "stateMutability": "view",
      "type": "function"
    },
    {
      "inputs": [
        {
          "internalType": "string",
          "name": "name",
          "type": "string"
        },
        {
          "internalType": "address",
          "name": "protocol",
          "type": "address"
        },
        {
          "internalType": "uint256",
          "name": "minScore",
          "type": "uint256"
        }
      ],
      "name": "hashPolicy",
      "outputs": [
        {
          "internalType": "bytes32",
          "name": "",
          "type": "bytes32"
        }
      ],
      "stateMutability": "pure",
      "type": "function"
    },
    {
      "inputs": [],
      "name": "listPolicies",
      "outputs": [
        {
          "internalType": "bytes32[]",
          "name": "",
          "type": "bytes32[]"
        }
      ],
      "stateMutability": "view",
      "type": "function"
    },
    {
      "inputs": [],
      "name": "owner",
      "outputs": [
        {
          "internalType": "address",
          "name": "",
          "type": "address"
        }
      ],
      "stateMutability": "view",
      "type": "function"
    },
    {
      "inputs": [
        {
          "internalType": "bytes32",
          "name": "",
          "type": "bytes32"
        }
      ],
      "name": "policies",
      "outputs": [
        {
          "internalType": "string",
          "name": "name",
          "type": "string"
        },
        {
          "internalType": "uint256",
          "name": "minTrustScore",
          "type": "uint256"
        },
        {
          "internalType": "uint256",
          "name": "minBand",
          "type": "uint256"
        },
        {
          "internalType": "bool",
          "name": "requireHuman",
          "type": "bool"
        },
        {
          "internalType": "bool",
          "name": "requireCredential",
          "type": "bool"
        },
        {
          "internalType": "bool",
          "name": "active",
          "type": "bool"
        }
      ],
      "stateMutability": "view",
      "type": "function"
    },
    {
      "inputs": [
        {
          "internalType": "uint256",
          "name": "",
          "type": "uint256"
        }
      ],
      "name": "policyIds",
      "outputs": [
        {
          "internalType": "bytes32",
          "name": "",
          "type": "bytes32"
        }
      ],
      "stateMutability": "view",
      "type": "function"
    },
    {
      "inputs": [],
      "name": "renounceOwnership",
      "outputs": [],
      "stateMutability": "nonpayable",
      "type": "function"
    },
    {
      "inputs": [
        {
          "internalType": "address",
          "name": "newOwner",
          "type": "address"
        }
      ],
      "name": "transferOwnership",
      "outputs": [],
      "stateMutability": "nonpayable",
      "type": "function"
    },
    {
      "inputs": [
        {
          "internalType": "bytes32",
          "name": "policyId",
          "type": "bytes32"
        },
        {
          "internalType": "uint256",
          "name": "_minTrustScore",
          "type": "uint256"
        },
        {
          "internalType": "uint256",
          "name": "_minBand",
          "type": "uint256"
        },
        {
          "internalType": "bool",
          "name": "_requireHuman",
          "type": "bool"
        },
        {
          "internalType": "bool",
          "name": "_requireCredential",
          "type": "bool"
        }
      ],
      "name": "updatePolicy",
      "outputs": [],
      "stateMutability": "nonpayable",
      "type": "function"
    },
    {
      "inputs": [
        {
          "internalType": "address",
          "name": "",
          "type": "address"
        },
        {
          "internalType": "bytes32",
          "name": "",
          "type": "bytes32"
        }
      ],
      "name": "userPolicyApprovals",
      "outputs": [
        {
          "internalType": "bool",
          "name": "",
          "type": "bool"
        }
      ],
      "stateMutability": "view",
      "type": "function"
    }
  ],
  "bytecode": "0x6080346100bb57601f61137338819003918201601f19168301916001600160401b038311848410176100c0578084926020946040528339810103126100bb57516001600160a01b0390818116908190036100bb5780156100a257600080546001600160a01b03198116831782556040519316907f8be0079c531659141344cd1fd0a4f28419497f9722a3daafe3b4186f6b6457e09080a361129c90816100d78239f35b604051631e4fbdf760e01b815260006004820152602490fd5b600080fd5b634e487b7160e01b600052604160045260246000fdfe6080604052600436101561001257600080fd5b60003560e01c80627b5561146109c5578063148e7b421461090f5780631b3d680d1461082c5780632f500f6c146107f55780636750e24d146106ab5780636c67c8d41461077a578063715018a6146107215780638da5cb5b146106f857806396bda534146106ab578063a3f685f914610619578063d806a5f3146105e8578063ddbfd8ef14610588578063e7b53afb146101f4578063ee7cea82146101535763f2fde38b146100c057600080fd5b3461014e57602036600319011261014e576100d9610d9f565b6100e161121a565b6001600160a01b0390811690811561013557600054826bffffffffffffffffffffffff60a01b821617600055167f8be0079c531659141344cd1fd0a4f28419497f9722a3daafe3b4186f6b6457e0600080a3005b604051631e4fbdf760e01b815260006004820152602490fd5b600080fd5b3461014e57606036600319011261014e5760043567ffffffffffffffff811161014e57610184903690600401610cec565b602435906001600160a01b038216820361014e576020916101e960546040518093866101b98184019788815193849201610db5565b8201906bffffffffffffffffffffffff199060601b16878201526044356034820152036034810184520182610cca565b519020604051908152f35b3461014e5761020236610e37565b94509260009291925260019384602052604060002060ff60036040519261022884610c92565b61023181610eb9565b845288810154602085015260028101546040850152015481811615156060840152818160081c161515608084015260101c1615801560a0830152610576578594604051948560a081011067ffffffffffffffff60a0880111176105605760a086016040526004865260005b6080811061054f57506000946020840151116104f7575b604083015111610498575b60608201511515908161048f575b50610430575b6080015115159081610427575b506103d2575b6102f1819492946111bc565b936102ff6040519586610cca565b818552601f1961030e836111bc565b0160005b8181106103bf57505060005b82811061039157505050604051916040830190151583526040602084015283518091526060830190602060608260051b8601019501916000905b8282106103655785870386f35b909192936020806103818399605f198a82030186528851610dd8565b9896019493919091019101610358565b928361039f82979584611206565b516103aa8287611206565b526103b58186611206565b500194929461031e565b6060602082890181019190915201610312565b915061041e6103e0836111d4565b926040516103ed81610cae565b601381527210dc9959195b9d1a585b081c995c5d5a5c9959606a1b60208201526104178285611206565b5282611206565b506000916102e5565b905015856102df565b935061048661043e836111d4565b9260405161044b81610cae565b601b81527f48756d616e20766572696669636174696f6e2072657175697265640000000000602082015261047f8287611206565b5284611206565b506000936102d2565b905015876102cc565b94506104ee6104a6846111d4565b936040516104b381610cae565b601881527f54727573742062616e642062656c6f77206d696e696d756d000000000000000060208201526104e78288611206565b5285611206565b506000946102be565b95509250859260405161050981610cae565b601981527f54727573742073636f72652062656c6f77206d696e696d756d00000000000000602082015261053c866111f9565b52610546856111f9565b506000956102b3565b806060602080938a0101520161029c565b634e487b7160e01b600052604160045260246000fd5b604051632f043fdf60e21b8152600490fd5b3461014e57602036600319011261014e57600435600052600160205260406000206105b281610eb9565b906105e460018201546003600284015493015460405194859460ff8360101c169360ff808560081c1694169287610dfd565b0390f35b3461014e57602061060f6105fb36610e37565b9461060a94919493929361121a565b610f5e565b6040519015158152f35b3461014e57602036600319011261014e57600435600052600160205260406000206040519061064782610c92565b6105e460a061065583610eb9565b92838552600181015494856020820152600360028301549283604084015201549160ff831615159182606082015260ff808560081c1615159485608084015260101c161515948591015260405196879687610dfd565b3461014e57604036600319011261014e576001600160a01b036106cc610d9f565b1660005260036020526040600020602435600052602052602060ff604060002054166040519015158152f35b3461014e57600036600319011261014e576000546040516001600160a01b039091168152602090f35b3461014e57600036600319011261014e5761073a61121a565b600080546001600160a01b0319811682556001600160a01b03167f8be0079c531659141344cd1fd0a4f28419497f9722a3daafe3b4186f6b6457e08280a3005b3461014e57602036600319011261014e5760043561079661121a565b80600052600160205260ff60036040600020015460101c161561057657806000526001602052600360406000200162ff00001981541690557f44ed21367569c548b0fe61f23f2031f4482314f67ad09c77933f3531103f41d5600080a2005b3461014e57602036600319011261014e5760043560025481101561014e5761081e602091610d52565b90546040519160031b1c8152f35b3461014e5760a036600319011261014e57600435604435606435801515810361014e57610857610d43565b9061086061121a565b83600052600160205260ff60036040600020015460101c161561057657600583116108fd576108be60036108d694866000526001602052604060002090602435600183015560028201550191829060ff801983541691151516179055565b9061ff00825491151560081b169061ff001916179055565b7f58722cff4cfeaed2eb7043b72ff6922d9843ac754c33e201627de9bffd23b97a600080a2005b604051634ab802f560e11b8152600490fd5b3461014e57600036600319011261014e57604051806002548083526020809301809160026000527f405787fa12a823e0f2b7631cc41b3ba8828b3321ca811111fa75cd3aa3bb5ace9060005b868282106109b157868661097182880383610cca565b604051928392818401908285525180915260408401929160005b82811061099a57505050500390f35b83518552869550938101939281019260010161098b565b83548552909301926001928301920161095b565b3461014e5760c036600319011261014e5767ffffffffffffffff60243581811161014e576109f7903690600401610cec565b90610a00610d43565b9060a43580151580910361014e57610a1661121a565b600435600052600160205260ff60036040600020015460101c16610c80576005606435116108fd5760405192610a4b84610c92565b84845260443560208501526064356040850152151560608401526080830152600160a083015260043560005260016020526040600020908251805191821161056057610a978354610e7f565b601f8111610c3c575b50602090601f8311600114610bce57918060a09492600394600092610bc3575b50508160011b9160001990851b1c19161781555b60208401516001820155604084015160028201550191610b0660608201511515849060ff801983541691151516179055565b6080810151835461ff00191690151560081b61ff00161783550151815462ff0000191690151560101b62ff0000161790556002546801000000000000000081101561056057806001610b5b9201600255610d52565b81549060031b90600435821b91600019901b19161790557f39e22d12e2b732793f8bd07ef82d8b6e6e397552ed92b613bddd0bf90826fb4f610ba860405192606084526060840190610dd8565b916044356020820152606435604082015280600435930390a2005b015190508780610ac0565b908360005260206000209160005b601f1985168110610c2457509260a0949260019260039583601f19811610610c0c575b505050811b018155610ad4565b015160001983871b60f8161c19169055878080610bff565b91926020600181928685015181550194019201610bdc565b836000526020600020601f840160051c810160208510610c79575b601f830160051c82018110610c6d575050610aa0565b60008155600101610c57565b5080610c57565b6040516342693d1160e11b8152600490fd5b60c0810190811067ffffffffffffffff82111761056057604052565b6040810190811067ffffffffffffffff82111761056057604052565b90601f8019910116810190811067ffffffffffffffff82111761056057604052565b81601f8201121561014e5780359067ffffffffffffffff82116105605760405192610d21601f8401601f191660200185610cca565b8284526020838301011161014e57816000926020809301838601378301015290565b60843590811515820361014e57565b600254811015610d895760026000527f405787fa12a823e0f2b7631cc41b3ba8828b3321ca811111fa75cd3aa3bb5ace0190600090565b634e487b7160e01b600052603260045260246000fd5b600435906001600160a01b038216820361014e57565b60005b838110610dc85750506000910152565b8181015183820152602001610db8565b90602091610df181518092818552858086019101610db5565b601f01601f1916010190565b9491969592610e1760a0959260c0885260c0880190610dd8565b976020870152604086015215156060850152151560808401521515910152565b60c090600319011261014e576004356001600160a01b038116810361014e5790602435906044359060643590608435801515810361014e579060a435801515810361014e5790565b90600182811c92168015610eaf575b6020831014610e9957565b634e487b7160e01b600052602260045260246000fd5b91607f1691610e8e565b90604051918260008254610ecc81610e7f565b90818452602094600191600181169081600014610f3c5750600114610efd575b505050610efb92500383610cca565b565b600090815285812095935091905b818310610f24575050610efb9350820101388080610eec565b85548884018501529485019487945091830191610f0b565b92505050610efb94925060ff191682840152151560051b820101388080610eec565b94929391909360009385855260209060018252604094858720908651610f8381610c92565b610f8c83610eb9565b815260018301549285820193845260036002820154918a8401928352015493606083019260ff86161515845260ff6080820196818160081c161515885260101c16159060a082159101526111ab5751881061115c5751861061110f575115159081611106575b506110b05751151590816110a7575b5061105d57837f764ecbf951f6b486a679b3f6d5b677547068829e18b7e2892b59c9e718f0823495969760018060a01b03169687815260038352818120898252835220600160ff198254161790558351928352820152a3600190565b93959050606091507210dc9959195b9d1a585b081c995c5d5a5c9959606a1b83601360008051602061124783398151915295519680885287015285015260018060a01b031692a390565b90501538611001565b505093959050606091507f48756d616e20766572696669636174696f6e207265717569726564000000000083601b60008051602061124783398151915295519680885287015285015260018060a01b031692a390565b90501538610ff2565b5050505093959050606091507154727573742062616e6420746f6f206c6f7760701b83601260008051602061124783398151915295519680885287015285015260018060a01b031692a390565b505050505093959050606091507254727573742073636f726520746f6f206c6f7760681b83601360008051602061124783398151915295519680885287015285015260018060a01b031692a390565b8951632f043fdf60e21b8152600490fd5b67ffffffffffffffff81116105605760051b60200190565b60001981146111e35760010190565b634e487b7160e01b600052601160045260246000fd5b805115610d895760200190565b8051821015610d895760209160051b010190565b6000546001600160a01b0316330361122e57565b60405163118cdaa760e01b8152336004820152602490fdfe429a5358a12a1c6db3723b143698c5f4a3d3822cd9237745d3fcb6fbb9d9156ca2646970667358221220c3c1cedf2eee9b06d3ebb760275e936c9d18d0ce3ca759e409d46dd668642c7864736f6c63430008180033",
  "linkReferences": {},
  "deployedLinkReferences": {}
}